{
  "_format": "hh-sol-artifact-1",
  "contractName": "ACME",
  "sourceName": "contracts/mocks/ACME.sol",
  "abi": [
    {
      "inputs": [
        {
          "internalType": "uint256",
          "name": "amount",
          "type": "uint256"
        }
      ],
      "name": "InvalidAmount",
      "type": "error"
    },
    {
      "inputs": [
        {
          "internalType": "uint256",
          "name": "amount",
          "type": "uint256"
        }
      ],
      "name": "NotEnoughBalance",
      "type": "error"
    },
    {
      "inputs": [
        {
          "internalType": "uint256",
          "name": "balance",
          "type": "uint256"
        }
      ],
      "name": "NotEnoughCollateral",
      "type": "error"
    },
    {
      "inputs": [
        {
          "internalType": "uint256",
          "name": "docBalance",
          "type": "uint256"
        }
      ],
      "name": "NotEnoughDocBalance",
      "type": "error"
    },
    {
      "inputs": [
        {
          "internalType": "uint256",
          "name": "debt",
          "type": "uint256"
        }
      ],
      "name": "PaymentBiggerThanDebt",
      "type": "error"
    },
    {
      "anonymous": false,
      "inputs": [
        {
          "indexed": true,
          "internalType": "address",
          "name": "from",
          "type": "address"
        },
        {
          "indexed": false,
          "internalType": "uint256",
          "name": "amount",
          "type": "uint256"
        }
      ],
      "name": "Deposit",
      "type": "event"
    },
    {
      "anonymous": false,
      "inputs": [
        {
          "indexed": true,
          "internalType": "address",
          "name": "from",
          "type": "address"
        },
        {
          "indexed": false,
          "internalType": "uint256",
          "name": "amount",
          "type": "uint256"
        },
        {
          "indexed": true,
          "internalType": "address",
          "name": "currency",
          "type": "address"
        }
      ],
      "name": "Loan",
      "type": "event"
    },
    {
      "anonymous": false,
      "inputs": [
        {
          "indexed": true,
          "internalType": "address",
          "name": "previousOwner",
          "type": "address"
        },
        {
          "indexed": true,
          "internalType": "address",
          "name": "newOwner",
          "type": "address"
        }
      ],
      "name": "OwnershipTransferred",
      "type": "event"
    },
    {
      "anonymous": false,
      "inputs": [
        {
          "indexed": false,
          "internalType": "uint256",
          "name": "amount",
          "type": "uint256"
        }
      ],
      "name": "ReceivedLiquidity",
      "type": "event"
    },
    {
      "anonymous": false,
      "inputs": [
        {
          "indexed": true,
          "internalType": "address",
          "name": "from",
          "type": "address"
        },
        {
          "indexed": false,
          "internalType": "uint256",
          "name": "amount",
          "type": "uint256"
        },
        {
          "indexed": true,
          "internalType": "address",
          "name": "currency",
          "type": "address"
        }
      ],
      "name": "Repay",
      "type": "event"
    },
    {
      "anonymous": false,
      "inputs": [
        {
          "indexed": true,
          "internalType": "address",
          "name": "from",
          "type": "address"
        },
        {
          "indexed": false,
          "internalType": "uint256",
          "name": "amount",
          "type": "uint256"
        }
      ],
      "name": "Withdraw",
      "type": "event"
    },
    {
      "inputs": [],
      "name": "deposit",
      "outputs": [],
      "stateMutability": "payable",
      "type": "function"
    },
    {
      "inputs": [
        {
          "internalType": "address",
          "name": "depositor",
          "type": "address"
        }
      ],
      "name": "deposit",
      "outputs": [],
      "stateMutability": "payable",
      "type": "function"
    },
    {
      "inputs": [],
      "name": "getBalance",
      "outputs": [
        {
          "internalType": "uint256",
          "name": "deposited",
          "type": "uint256"
        },
        {
          "internalType": "uint256",
          "name": "interest",
          "type": "uint256"
        }
      ],
      "stateMutability": "view",
      "type": "function"
    },
    {
      "inputs": [
        {
          "internalType": "address",
          "name": "depositor",
          "type": "address"
        }
      ],
      "name": "getBalance",
      "outputs": [
        {
          "internalType": "uint256",
          "name": "deposited",
          "type": "uint256"
        },
        {
          "internalType": "uint256",
          "name": "interest",
          "type": "uint256"
        }
      ],
      "stateMutability": "view",
      "type": "function"
    },
    {
      "inputs": [
        {
          "internalType": "address",
          "name": "currency",
          "type": "address"
        }
      ],
      "name": "getCetCollateralFactor",
      "outputs": [
        {
          "internalType": "uint256",
          "name": "",
          "type": "uint256"
        }
      ],
      "stateMutability": "view",
      "type": "function"
    },
    {
      "inputs": [
        {
          "internalType": "address",
          "name": "currency",
          "type": "address"
        },
        {
          "internalType": "uint256",
          "name": "amount",
          "type": "uint256"
        }
      ],
      "name": "loan",
      "outputs": [],
      "stateMutability": "nonpayable",
      "type": "function"
    },
    {
      "inputs": [
        {
          "internalType": "address",
          "name": "currency",
          "type": "address"
        },
        {
          "internalType": "uint256",
          "name": "amount",
          "type": "uint256"
        },
        {
          "internalType": "address",
          "name": "loaner",
          "type": "address"
        }
      ],
      "name": "loan",
      "outputs": [],
      "stateMutability": "nonpayable",
      "type": "function"
    },
    {
      "inputs": [],
      "name": "owner",
      "outputs": [
        {
          "internalType": "address",
          "name": "",
          "type": "address"
        }
      ],
      "stateMutability": "view",
      "type": "function"
    },
    {
      "inputs": [],
      "name": "renounceOwnership",
      "outputs": [],
      "stateMutability": "nonpayable",
      "type": "function"
    },
    {
      "inputs": [
        {
          "internalType": "address",
          "name": "currency",
          "type": "address"
        },
        {
          "internalType": "uint256",
          "name": "amount",
          "type": "uint256"
        },
        {
          "internalType": "address",
          "name": "payer",
          "type": "address"
        },
        {
          "internalType": "address",
          "name": "loaner",
          "type": "address"
        }
      ],
      "name": "repay",
      "outputs": [],
      "stateMutability": "nonpayable",
      "type": "function"
    },
    {
      "inputs": [
        {
          "internalType": "address",
          "name": "currency",
          "type": "address"
        },
        {
          "internalType": "uint256",
          "name": "amount",
          "type": "uint256"
        },
        {
          "internalType": "address",
          "name": "loaner",
          "type": "address"
        }
      ],
      "name": "repay",
      "outputs": [],
      "stateMutability": "nonpayable",
      "type": "function"
    },
    {
      "inputs": [
        {
          "internalType": "address",
          "name": "newOwner",
          "type": "address"
        }
      ],
      "name": "transferOwnership",
      "outputs": [],
      "stateMutability": "nonpayable",
      "type": "function"
    },
    {
      "inputs": [
        {
          "internalType": "address",
          "name": "currency",
          "type": "address"
        },
        {
          "internalType": "uint256",
          "name": "factor",
          "type": "uint256"
        }
      ],
      "name": "updateCollateralFactor",
      "outputs": [],
      "stateMutability": "nonpayable",
      "type": "function"
    },
    {
      "inputs": [
        {
          "internalType": "uint256",
          "name": "amount",
          "type": "uint256"
        },
        {
          "internalType": "address",
          "name": "withdrawer",
          "type": "address"
        }
      ],
      "name": "withdraw",
      "outputs": [],
      "stateMutability": "nonpayable",
      "type": "function"
    },
    {
      "inputs": [
        {
          "internalType": "uint256",
          "name": "amount",
          "type": "uint256"
        }
      ],
      "name": "withdraw",
      "outputs": [],
      "stateMutability": "nonpayable",
      "type": "function"
    },
    {
      "stateMutability": "payable",
      "type": "receive"
    }
  ],
  "bytecode": "0x60806040526000600355600a60045569043c33c193756480000060055534801561002857600080fd5b5061003233610037565b610087565b600080546001600160a01b038381166001600160a01b0319831681178455604051919092169283917f8be0079c531659141344cd1fd0a4f28419497f9722a3daafe3b4186f6b6457e09190a35050565b6111a1806100966000396000f3fe6080604052600436106100eb5760003560e01c8063715018a61161008a578063d0e30db011610059578063d0e30db0146102bc578063f2fde38b146102c4578063f340fa01146102e4578063f8b2cb4f146102f757600080fd5b8063715018a61461021b5780638da5cb5b14610230578063ae95b18c14610258578063b13f0de81461029c57600080fd5b80631edd0c6c116100c65780631edd0c6c1461019b5780632e1a7d4d146101bb5780635b1ae19f146101db5780635ceae9c4146101fb57600080fd5b8062f714ce1461012a57806312065fe01461014c578063185cc7511461017b57600080fd5b36610125576040513481527f9791a64fa61eb6f0c230c12172500c57b83375e4e802f24b709dd09afc30ab459060200160405180910390a1005b600080fd5b34801561013657600080fd5b5061014a610145366004610f99565b610317565b005b34801561015857600080fd5b50610161610325565b604080519283526020830191909152015b60405180910390f35b34801561018757600080fd5b5061014a610196366004610fc5565b610339565b3480156101a757600080fd5b5061014a6101b6366004610fef565b610344565b3480156101c757600080fd5b5061014a6101d636600461103c565b610356565b3480156101e757600080fd5b5061014a6101f6366004610fc5565b610363565b34801561020757600080fd5b5061014a610216366004611055565b6103b0565b34801561022757600080fd5b5061014a6103c1565b34801561023c57600080fd5b506000546040516001600160a01b039091168152602001610172565b34801561026457600080fd5b5061028e610273366004611091565b6001600160a01b031660009081526006602052604090205490565b604051908152602001610172565b3480156102a857600080fd5b5061014a6102b7366004611055565b6103d5565b61014a6103e0565b3480156102d057600080fd5b5061014a6102df366004611091565b6103ea565b61014a6102f2366004611091565b610477565b34801561030357600080fd5b50610161610312366004611091565b610481565b6103218282610496565b5050565b60008061033133610767565b915091509091565b610321828233610797565b61035084848484610b3d565b50505050565b6103608133610496565b50565b61036b610d22565b8060000361039457604051633728b83d60e01b8152600481018290526024015b60405180910390fd5b6001600160a01b03909116600090815260066020526040902055565b6103bc83833384610b3d565b505050565b6103c9610d22565b6103d36000610d7c565b565b6103bc838383610797565b6103d33433610de4565b6103f2610d22565b6001600160a01b03811661046e5760405162461bcd60e51b815260206004820152602660248201527f4f776e61626c653a206e6577206f776e657220697320746865207a65726f206160448201527f6464726573730000000000000000000000000000000000000000000000000000606482015260840161038b565b61036081610d7c565b6103603482610de4565b60008061048d83610767565b91509150915091565b6001600160a01b038116600090815260016020908152604080832083805290915290206002015460ff16156105335760405162461bcd60e51b815260206004820152602160248201527f62616c616e636520636f6d70726f6d6973656420617320636f6c6c617465726160448201527f6c00000000000000000000000000000000000000000000000000000000000000606482015260840161038b565b6001600160a01b0381166000908152600160209081526040808320838052909152902054158061058557506001600160a01b038116600090815260016020908152604080832083805290915290205482115b156105bf576040517f74e0caad0000000000000000000000000000000000000000000000000000000081526004810183905260240161038b565b60006105cc826000610edb565b6001600160a01b03831660009081526001602090815260408083208380529091528120805492935085929091906106049084906110c9565b90915550506001600160a01b0382166000908152600160209081526040808320838052909152812054900361066c576001600160a01b0382166000908152600160208181526040808420848052909152822082815590810191909155600201805460ff191690555b600061067882856110dc565b90506000836001600160a01b03168260405160006040518083038185875af1925050503d80600081146106c7576040519150601f19603f3d011682016040523d82523d6000602084013e6106cc565b606091505b505090508061071d5760405162461bcd60e51b815260206004820152601460248201527f6661696c656420746f2073656e642076616c7565000000000000000000000000604482015260640161038b565b836001600160a01b03167f884edad9ce6fa2440d8a54cc123490eb96d2768479d49ff9c7366125a94243648360405161075891815260200190565b60405180910390a25050505050565b6001600160a01b0381166000908152600160209081526040808320838052909152812054819061048d8483610edb565b6001600160a01b03808416600090815260066020908152604080832054938516835260018252808320838052909152812054600554909190670de0b6b3a7640000906107e390846110ef565b6107ed919061110e565b90506000670de0b6b3a764000061080485846110ef565b61080e919061110e565b90508581101561084d576040517fcebe85310000000000000000000000000000000000000000000000000000000081526004810184905260240161038b565b6040516370a0823160e01b81523060048201526000906001600160a01b038916906370a0823190602401602060405180830381865afa158015610894573d6000803e3d6000fd5b505050506040513d601f19601f820116820180604052508101906108b89190611130565b6040516370a0823160e01b815230600482015290915087906001600160a01b038a16906370a0823190602401602060405180830381865afa158015610901573d6000803e3d6000fd5b505050506040513d601f19601f820116820180604052508101906109259190611130565b1015610960576040517f73f6709e0000000000000000000000000000000000000000000000000000000081526004810182905260240161038b565b6001806000886001600160a01b03166001600160a01b031681526020019081526020016000206000806001600160a01b03166001600160a01b0316815260200190815260200160002060020160006101000a81548160ff02191690831515021790555060405180606001604052808881526020014381526020016000151581525060026000886001600160a01b03166001600160a01b0316815260200190815260200160002060008a6001600160a01b03166001600160a01b03168152602001908152602001600020600082015181600001556020820151816001015560408201518160020160006101000a81548160ff021916908315150217905550905050876001600160a01b031663a9059cbb87896040518363ffffffff1660e01b8152600401610aa29291906001600160a01b03929092168252602082015260400190565b6020604051808303816000875af1158015610ac1573d6000803e3d6000fd5b505050506040513d601f19601f82011682018060405250810190610ae59190611149565b50876001600160a01b0316866001600160a01b03167f32f89fab0f3ca5edd25e16d06957892ea56c07dc347227088d3f98a6cbf220bc89604051610b2b91815260200190565b60405180910390a35050505050505050565b6001600160a01b0380821660009081526002602090815260408083209388168352929052205480841115610ba0576040517ff7aec3b30000000000000000000000000000000000000000000000000000000081526004810182905260240161038b565b6040517f23b872dd0000000000000000000000000000000000000000000000000000000081526001600160a01b038481166004830152306024830152604482018690528616906323b872dd906064016020604051808303816000875af1158015610c0e573d6000803e3d6000fd5b505050506040513d601f19601f82011682018060405250810190610c329190611149565b506001600160a01b03808316600090815260026020908152604080832093891683529290529081208054869290610c6a9084906110c9565b90915550506001600160a01b0380831660009081526002602090815260408083209389168352929052908120549003610cce576001600160a01b038083166000908152600260208181526040808420948a16845293905291902001805460ff191690555b846001600160a01b0316826001600160a01b03167f208928674d844f1873d826482474b6f0e021e4592c0384574f00e016d90d979b86604051610d1391815260200190565b60405180910390a35050505050565b6000546001600160a01b031633146103d35760405162461bcd60e51b815260206004820181905260248201527f4f776e61626c653a2063616c6c6572206973206e6f7420746865206f776e6572604482015260640161038b565b600080546001600160a01b038381167fffffffffffffffffffffffff0000000000000000000000000000000000000000831681178455604051919092169283917f8be0079c531659141344cd1fd0a4f28419497f9722a3daafe3b4186f6b6457e09190a35050565b81600003610e0857604051633728b83d60e01b81526004810183905260240161038b565b6001600160a01b038116600090815260016020908152604080832083805290915281208054849290610e3b9084906110dc565b90915550506001600160a01b0381166000908152600160208181526040808420848052909152822001549003610e94576001600160a01b0381166000908152600160208181526040808420848052909152909120439101555b806001600160a01b03167fe1fffcc4923d04b559f4d29a8bfc6cda04eb5b0d3c460751c2402c5c5cc9109c83604051610ecf91815260200190565b60405180910390a25050565b6001600160a01b038083166000908152600160208181526040808420948616845293905291812090910154808203610f17576000915050610f77565b6000610f2382436110c9565b6004546001600160a01b038088166000908152600160209081526040808320938a168352929052205491925061271091610f5e9084906110ef565b610f6891906110ef565b610f72919061110e565b925050505b92915050565b80356001600160a01b0381168114610f9457600080fd5b919050565b60008060408385031215610fac57600080fd5b82359150610fbc60208401610f7d565b90509250929050565b60008060408385031215610fd857600080fd5b610fe183610f7d565b946020939093013593505050565b6000806000806080858703121561100557600080fd5b61100e85610f7d565b93506020850135925061102360408601610f7d565b915061103160608601610f7d565b905092959194509250565b60006020828403121561104e57600080fd5b5035919050565b60008060006060848603121561106a57600080fd5b61107384610f7d565b92506020840135915061108860408501610f7d565b90509250925092565b6000602082840312156110a357600080fd5b6110ac82610f7d565b9392505050565b634e487b7160e01b600052601160045260246000fd5b81810381811115610f7757610f776110b3565b80820180821115610f7757610f776110b3565b6000816000190483118215151615611109576111096110b3565b500290565b60008261112b57634e487b7160e01b600052601260045260246000fd5b500490565b60006020828403121561114257600080fd5b5051919050565b60006020828403121561115b57600080fd5b815180151581146110ac57600080fdfea2646970667358221220de17ec7fa59ba99cdaa5cfba734522c71cf1a55495d16cd55178eef84927739564736f6c63430008100033",
  "linkReferences": {},
  "deployedLinkReferences": {}
}