{
  "_format": "hh-sol-artifact-1",
  "contractName": "DummierLendingService",
  "sourceName": "contracts/mocks/DummierLendingService.sol",
  "abi": [
    {
      "inputs": [
        {
          "internalType": "contract ACME",
          "name": "acmeLending",
          "type": "address"
        },
        {
          "internalType": "contract UserIdentityFactory",
          "name": "userIdentityFactory",
          "type": "address"
        }
      ],
      "stateMutability": "nonpayable",
      "type": "constructor"
    },
    {
      "inputs": [
        {
          "internalType": "uint256",
          "name": "amount",
          "type": "uint256"
        }
      ],
      "name": "InvalidAmount",
      "type": "error"
    },
    {
      "anonymous": false,
      "inputs": [
        {
          "indexed": true,
          "internalType": "address",
          "name": "lender",
          "type": "address"
        },
        {
          "indexed": false,
          "internalType": "address",
          "name": "currency",
          "type": "address"
        },
        {
          "indexed": false,
          "internalType": "uint256",
          "name": "amount",
          "type": "uint256"
        }
      ],
      "name": "Lend",
      "type": "event"
    },
    {
      "anonymous": false,
      "inputs": [
        {
          "indexed": true,
          "internalType": "address",
          "name": "currency",
          "type": "address"
        },
        {
          "indexed": true,
          "internalType": "uint256",
          "name": "listingId",
          "type": "uint256"
        }
      ],
      "name": "ListingCreated",
      "type": "event"
    },
    {
      "anonymous": false,
      "inputs": [
        {
          "indexed": true,
          "internalType": "address",
          "name": "previousOwner",
          "type": "address"
        },
        {
          "indexed": true,
          "internalType": "address",
          "name": "newOwner",
          "type": "address"
        }
      ],
      "name": "OwnershipTransferred",
      "type": "event"
    },
    {
      "anonymous": false,
      "inputs": [
        {
          "indexed": true,
          "internalType": "address",
          "name": "withdrawer",
          "type": "address"
        },
        {
          "indexed": false,
          "internalType": "address",
          "name": "currency",
          "type": "address"
        },
        {
          "indexed": false,
          "internalType": "uint256",
          "name": "amount",
          "type": "uint256"
        }
      ],
      "name": "Withdraw",
      "type": "event"
    },
    {
      "inputs": [
        {
          "internalType": "uint256",
          "name": "minDuration",
          "type": "uint256"
        },
        {
          "internalType": "uint256",
          "name": "maxDuration",
          "type": "uint256"
        },
        {
          "internalType": "address",
          "name": "currency",
          "type": "address"
        },
        {
          "internalType": "enum LendingService.PayBackOption",
          "name": "payBackOption",
          "type": "uint8"
        },
        {
          "internalType": "uint256",
          "name": "rewardRate",
          "type": "uint256"
        }
      ],
      "name": "addListing",
      "outputs": [
        {
          "internalType": "uint256",
          "name": "",
          "type": "uint256"
        }
      ],
      "stateMutability": "nonpayable",
      "type": "function"
    },
    {
      "inputs": [],
      "name": "getBalance",
      "outputs": [
        {
          "internalType": "uint256",
          "name": "",
          "type": "uint256"
        }
      ],
      "stateMutability": "view",
      "type": "function"
    },
    {
      "inputs": [
        {
          "internalType": "address",
          "name": "currency",
          "type": "address"
        },
        {
          "internalType": "uint256",
          "name": "listingId",
          "type": "uint256"
        }
      ],
      "name": "getListing",
      "outputs": [
        {
          "components": [
            {
              "internalType": "uint256",
              "name": "id",
              "type": "uint256"
            },
            {
              "internalType": "uint256",
              "name": "minDuration",
              "type": "uint256"
            },
            {
              "internalType": "uint256",
              "name": "maxDuration",
              "type": "uint256"
            },
            {
              "internalType": "address",
              "name": "currency",
              "type": "address"
            },
            {
              "internalType": "enum LendingService.PayBackOption",
              "name": "payBackOption",
              "type": "uint8"
            },
            {
              "internalType": "uint256",
              "name": "rewardRate",
              "type": "uint256"
            }
          ],
          "internalType": "struct LendingService.LendingServiceListing",
          "name": "",
          "type": "tuple"
        }
      ],
      "stateMutability": "view",
      "type": "function"
    },
    {
      "inputs": [],
      "name": "getListingCount",
      "outputs": [
        {
          "internalType": "uint256",
          "name": "",
          "type": "uint256"
        }
      ],
      "stateMutability": "view",
      "type": "function"
    },
    {
      "inputs": [
        {
          "internalType": "uint256",
          "name": "duration",
          "type": "uint256"
        },
        {
          "internalType": "enum LendingService.PayBackOption",
          "name": "payBackOption",
          "type": "uint8"
        }
      ],
      "name": "lend",
      "outputs": [],
      "stateMutability": "payable",
      "type": "function"
    },
    {
      "inputs": [
        {
          "internalType": "address",
          "name": "",
          "type": "address"
        },
        {
          "internalType": "uint256",
          "name": "",
          "type": "uint256"
        }
      ],
      "name": "listings",
      "outputs": [
        {
          "internalType": "uint256",
          "name": "id",
          "type": "uint256"
        },
        {
          "internalType": "uint256",
          "name": "minDuration",
          "type": "uint256"
        },
        {
          "internalType": "uint256",
          "name": "maxDuration",
          "type": "uint256"
        },
        {
          "internalType": "address",
          "name": "currency",
          "type": "address"
        },
        {
          "internalType": "enum LendingService.PayBackOption",
          "name": "payBackOption",
          "type": "uint8"
        },
        {
          "internalType": "uint256",
          "name": "rewardRate",
          "type": "uint256"
        }
      ],
      "stateMutability": "view",
      "type": "function"
    },
    {
      "inputs": [],
      "name": "owner",
      "outputs": [
        {
          "internalType": "address",
          "name": "",
          "type": "address"
        }
      ],
      "stateMutability": "view",
      "type": "function"
    },
    {
      "inputs": [
        {
          "internalType": "address",
          "name": "currency",
          "type": "address"
        },
        {
          "internalType": "uint256",
          "name": "listingId",
          "type": "uint256"
        }
      ],
      "name": "removeListing",
      "outputs": [],
      "stateMutability": "nonpayable",
      "type": "function"
    },
    {
      "inputs": [],
      "name": "renounceOwnership",
      "outputs": [],
      "stateMutability": "nonpayable",
      "type": "function"
    },
    {
      "inputs": [],
      "name": "serviceType",
      "outputs": [
        {
          "internalType": "enum Service.ServiceType",
          "name": "",
          "type": "uint8"
        }
      ],
      "stateMutability": "view",
      "type": "function"
    },
    {
      "inputs": [
        {
          "internalType": "address",
          "name": "newOwner",
          "type": "address"
        }
      ],
      "name": "transferOwnership",
      "outputs": [],
      "stateMutability": "nonpayable",
      "type": "function"
    },
    {
      "inputs": [
        {
          "internalType": "address",
          "name": "currency",
          "type": "address"
        },
        {
          "components": [
            {
              "internalType": "uint256",
              "name": "id",
              "type": "uint256"
            },
            {
              "internalType": "uint256",
              "name": "minDuration",
              "type": "uint256"
            },
            {
              "internalType": "uint256",
              "name": "maxDuration",
              "type": "uint256"
            },
            {
              "internalType": "address",
              "name": "currency",
              "type": "address"
            },
            {
              "internalType": "enum LendingService.PayBackOption",
              "name": "payBackOption",
              "type": "uint8"
            },
            {
              "internalType": "uint256",
              "name": "rewardRate",
              "type": "uint256"
            }
          ],
          "internalType": "struct LendingService.LendingServiceListing",
          "name": "listing",
          "type": "tuple"
        }
      ],
      "name": "update",
      "outputs": [],
      "stateMutability": "nonpayable",
      "type": "function"
    },
    {
      "inputs": [],
      "name": "withdraw",
      "outputs": [],
      "stateMutability": "nonpayable",
      "type": "function"
    }
  ],
  "bytecode": "0x608060405234801561001057600080fd5b5060405161137138038061137183398101604081905261002f916100de565b61003833610076565b6000805460ff60a01b19169055600380546001600160a01b039384166001600160a01b03199182161790915560048054929093169116179055610118565b600080546001600160a01b038381166001600160a01b0319831681178455604051919092169283917f8be0079c531659141344cd1fd0a4f28419497f9722a3daafe3b4186f6b6457e09190a35050565b6001600160a01b03811681146100db57600080fd5b50565b600080604083850312156100f157600080fd5b82516100fc816100c6565b602084015190925061010d816100c6565b809150509250929050565b61124a806101276000396000f3fe6080604052600436106100d15760003560e01c806366c5492c1161007f57806388700d1c1161005957806388700d1c1461022f5780638da5cb5b1461025c578063db0881a114610284578063f2fde38b146102b257600080fd5b806366c5492c146101e5578063715018a61461020557806387ed92d71461021a57600080fd5b80632bea10fe116100b05780632bea10fe146101905780633ccfd60b146101b057806359edbe71146101c557600080fd5b806207df30146100d657806312065fe01461015857806329d60bf41461017b575b600080fd5b3480156100e257600080fd5b5061013d6100f1366004610dfe565b6001602081815260009384526040808520909152918352912080549181015460028201546003830154600490930154919290916001600160a01b03821691600160a01b900460ff169086565b60405161014f96959493929190610e54565b60405180910390f35b34801561016457600080fd5b5061016d6102d2565b60405190815260200161014f565b61018e610189366004610eaa565b61042d565b005b34801561019c57600080fd5b5061018e6101ab366004610eec565b610652565b3480156101bc57600080fd5b5061018e610712565b3480156101d157600080fd5b5061018e6101e0366004610dfe565b6109df565b3480156101f157600080fd5b5061016d610200366004610f9a565b610a44565b34801561021157600080fd5b5061018e610b96565b34801561022657600080fd5b5060025461016d565b34801561023b57600080fd5b5061024f61024a366004610dfe565b610baa565b60405161014f9190610fea565b34801561026857600080fd5b506000546040516001600160a01b03909116815260200161014f565b34801561029057600080fd5b506000546102a590600160a01b900460ff1681565b60405161014f919061103e565b3480156102be57600080fd5b5061018e6102cd366004611058565b610c52565b60048054604051632fea7b8160e01b8152339281019290925260009182916001600160a01b031690632fea7b8190602401602060405180830381865afa158015610320573d6000803e3d6000fd5b505050506040513d601f19601f82011682018060405250810190610344919061107c565b90506001600160a01b03811661035c57600091505090565b6003546040805160048082526024820183526020820180516001600160e01b0316629032ff60e51b179052915163d79f44eb60e01b81526000936001600160a01b038087169463d79f44eb946103b7949390921692016110bd565b600060405180830381865afa1580156103d4573d6000803e3d6000fd5b505050506040513d6000823e601f3d908101601f191682016040526103fc9190810190611100565b90506000808280602001905181019061041591906111ad565b909250905061042481836111d1565b94505050505090565b3460000361046e576040517f3728b83d0000000000000000000000000000000000000000000000000000000081523460048201526024015b60405180910390fd5b600480546040516316caac1b60e21b815233928101929092526001600160a01b031690635b2ab06c90602401600060405180830381600087803b1580156104b457600080fd5b505af11580156104c8573d6000803e3d6000fd5b505060048054604051632fea7b8160e01b81523392810192909252600093506001600160a01b03169150632fea7b8190602401602060405180830381865afa158015610518573d6000803e3d6000fd5b505050506040513d601f19601f8201168201806040525081019061053c919061107c565b6003546040805160048082526024820183526020820180516001600160e01b03167fd0e30db00000000000000000000000000000000000000000000000000000000017905291517fc89acc860000000000000000000000000000000000000000000000000000000081529394506001600160a01b038086169463c89acc869434946105ce9491909316929091016110bd565b60206040518083038185885af11580156105ec573d6000803e3d6000fd5b50505050506040513d601f19601f8201168201806040525081019061061191906111f2565b50604080516000815234602082015233917f11dd72a5d477527ee1cbe309212bb368745a98cf1dc3befcac7eef4988a957c2910160405180910390a2505050565b6001600160a01b038083166000908152600160208181526040808420865185528252928390208551815590850151918101919091559083015160028201556060830151600380830180549290941673ffffffffffffffffffffffffffffffffffffffff19831681178555608086015186959093909274ffffffffffffffffffffffffffffffffffffffffff1990911690911790600160a01b9084908111156106fc576106fc610e2a565b021790555060a082015181600401559050505050565b600480546040516316caac1b60e21b815233928101929092526001600160a01b031690635b2ab06c90602401600060405180830381600087803b15801561075857600080fd5b505af115801561076c573d6000803e3d6000fd5b505060048054604051632fea7b8160e01b81523392810192909252600093506001600160a01b03169150632fea7b8190602401602060405180830381865afa1580156107bc573d6000803e3d6000fd5b505050506040513d601f19601f820116820180604052508101906107e0919061107c565b6003546040805160048082526024820183526020820180516001600160e01b0316629032ff60e51b179052915163d79f44eb60e01b81529394506000936001600160a01b038087169463d79f44eb946108409491909216929091016110bd565b600060405180830381865afa15801561085d573d6000803e3d6000fd5b505050506040513d6000823e601f3d908101601f191682016040526108859190810190611100565b90506000808280602001905181019061089e91906111ad565b600354604051602481018490529294509092506001600160a01b038087169263621091c2929091169060440160408051601f198184030181529181526020820180516001600160e01b03167f2e1a7d4d000000000000000000000000000000000000000000000000000000001790525160e084901b7fffffffff000000000000000000000000000000000000000000000000000000001681526109459291906004016110bd565b6020604051808303816000875af1158015610964573d6000803e3d6000fd5b505050506040513d601f19601f8201168201806040525081019061098891906111f2565b50337f9b1bfa7fa9ee420a16e124f794c35ac9f90472acc99140eb2f6447c714cad8eb60006109b784866111d1565b604080516001600160a01b03909316835260208301919091520160405180910390a250505050565b6109e7610ce2565b6001600160a01b0390911660009081526001602081815260408084209484529390529181208181559182018190556002820181905560038201805474ffffffffffffffffffffffffffffffffffffffffff19169055600490910155565b6000610a4e610ce2565b60006002546001610a5f91906111d1565b90506040518060c00160405280828152602001888152602001878152602001866001600160a01b03168152602001856003811115610a9f57610a9f610e2a565b815260209081018590526001600160a01b0380881660009081526001808452604080832087845285529182902085518155938501519084015583015160028301556060830151600380840180549290931673ffffffffffffffffffffffffffffffffffffffff198316811784556080860151939274ffffffffffffffffffffffffffffffffffffffffff19161790600160a01b908490811115610b4457610b44610e2a565b021790555060a0919091015160049091015560405181906001600160a01b038716907ff060b874355dd22d0bc251d61fca3b6d902778149a3048748276c9ee78ead56c90600090a39695505050505050565b610b9e610ce2565b610ba86000610d3c565b565b610bb2610d99565b6001600160a01b038381166000908152600160208181526040808420878552825292839020835160c081018552815481529281015491830191909152600281015492820192909252600380830154938416606083015290926080840191600160a01b90910460ff1690811115610c2a57610c2a610e2a565b6003811115610c3b57610c3b610e2a565b815260200160048201548152505090505b92915050565b610c5a610ce2565b6001600160a01b038116610cd65760405162461bcd60e51b815260206004820152602660248201527f4f776e61626c653a206e6577206f776e657220697320746865207a65726f206160448201527f64647265737300000000000000000000000000000000000000000000000000006064820152608401610465565b610cdf81610d3c565b50565b6000546001600160a01b03163314610ba85760405162461bcd60e51b815260206004820181905260248201527f4f776e61626c653a2063616c6c6572206973206e6f7420746865206f776e65726044820152606401610465565b600080546001600160a01b0383811673ffffffffffffffffffffffffffffffffffffffff19831681178455604051919092169283917f8be0079c531659141344cd1fd0a4f28419497f9722a3daafe3b4186f6b6457e09190a35050565b6040518060c0016040528060008152602001600081526020016000815260200160006001600160a01b0316815260200160006003811115610ddc57610ddc610e2a565b8152602001600081525090565b6001600160a01b0381168114610cdf57600080fd5b60008060408385031215610e1157600080fd5b8235610e1c81610de9565b946020939093013593505050565b634e487b7160e01b600052602160045260246000fd5b60048110610e5057610e50610e2a565b9052565b86815260208101869052604081018590526001600160a01b038416606082015260c08101610e856080830185610e40565b8260a0830152979650505050505050565b803560048110610ea557600080fd5b919050565b60008060408385031215610ebd57600080fd5b82359150610ecd60208401610e96565b90509250929050565b634e487b7160e01b600052604160045260246000fd5b60008082840360e0811215610f0057600080fd5b8335610f0b81610de9565b925060c0601f1982011215610f1f57600080fd5b5060405160c0810181811067ffffffffffffffff82111715610f4357610f43610ed6565b80604052506020840135815260408401356020820152606084013560408201526080840135610f7181610de9565b6060820152610f8260a08501610e96565b608082015260c0939093013560a08401525092909150565b600080600080600060a08688031215610fb257600080fd5b85359450602086013593506040860135610fcb81610de9565b9250610fd960608701610e96565b949793965091946080013592915050565b600060c0820190508251825260208301516020830152604083015160408301526001600160a01b036060840151166060830152608083015161102f6080840182610e40565b5060a092830151919092015290565b602081016002831061105257611052610e2a565b91905290565b60006020828403121561106a57600080fd5b813561107581610de9565b9392505050565b60006020828403121561108e57600080fd5b815161107581610de9565b60005b838110156110b457818101518382015260200161109c565b50506000910152565b6001600160a01b038316815260406020820152600082518060408401526110eb816060850160208701611099565b601f01601f1916919091016060019392505050565b60006020828403121561111257600080fd5b815167ffffffffffffffff8082111561112a57600080fd5b818401915084601f83011261113e57600080fd5b81518181111561115057611150610ed6565b604051601f8201601f19908116603f0116810190838211818310171561117857611178610ed6565b8160405282815287602084870101111561119157600080fd5b6111a2836020830160208801611099565b979650505050505050565b600080604083850312156111c057600080fd5b505080516020909101519092909150565b80820180821115610c4c57634e487b7160e01b600052601160045260246000fd5b60006020828403121561120457600080fd5b8151801515811461107557600080fdfea264697066735822122001ca4f953b2f2ad7c38a449ba08068124a4d5be9bc62b8645522fe7f2aabbc1f64736f6c63430008100033",
  "linkReferences": {},
  "deployedLinkReferences": {}
}