{
  "_format": "hh-sol-artifact-1",
  "contractName": "Providers",
  "sourceName": "contracts/services/Providers.sol",
  "abi": [
    {
      "inputs": [
        {
          "internalType": "address",
          "name": "provider",
          "type": "address"
        }
      ],
      "name": "InvalidProviderAddress",
      "type": "error"
    },
    {
      "anonymous": false,
      "inputs": [
        {
          "indexed": true,
          "internalType": "address",
          "name": "previousOwner",
          "type": "address"
        },
        {
          "indexed": true,
          "internalType": "address",
          "name": "newOwner",
          "type": "address"
        }
      ],
      "name": "OwnershipTransferred",
      "type": "event"
    },
    {
      "inputs": [
        {
          "internalType": "contract Service",
          "name": "service",
          "type": "address"
        }
      ],
      "name": "addService",
      "outputs": [],
      "stateMutability": "nonpayable",
      "type": "function"
    },
    {
      "inputs": [
        {
          "internalType": "enum IServiceData.ServiceType",
          "name": "serviceType",
          "type": "uint8"
        }
      ],
      "name": "getPendingServices",
      "outputs": [
        {
          "internalType": "contract Service[]",
          "name": "",
          "type": "address[]"
        }
      ],
      "stateMutability": "view",
      "type": "function"
    },
    {
      "inputs": [
        {
          "internalType": "enum IServiceData.ServiceType",
          "name": "serviceType",
          "type": "uint8"
        }
      ],
      "name": "getServices",
      "outputs": [
        {
          "internalType": "contract Service[]",
          "name": "",
          "type": "address[]"
        }
      ],
      "stateMutability": "view",
      "type": "function"
    },
    {
      "inputs": [],
      "name": "owner",
      "outputs": [
        {
          "internalType": "address",
          "name": "",
          "type": "address"
        }
      ],
      "stateMutability": "view",
      "type": "function"
    },
    {
      "inputs": [],
      "name": "renounceOwnership",
      "outputs": [],
      "stateMutability": "nonpayable",
      "type": "function"
    },
    {
      "inputs": [
        {
          "internalType": "address",
          "name": "newOwner",
          "type": "address"
        }
      ],
      "name": "transferOwnership",
      "outputs": [],
      "stateMutability": "nonpayable",
      "type": "function"
    },
    {
      "inputs": [
        {
          "internalType": "bool",
          "name": "approved",
          "type": "bool"
        },
        {
          "internalType": "contract Service",
          "name": "service",
          "type": "address"
        }
      ],
      "name": "validate",
      "outputs": [],
      "stateMutability": "nonpayable",
      "type": "function"
    }
  ],
  "bytecode": "0x608060405234801561001057600080fd5b5061001a3361001f565b61006f565b600080546001600160a01b038381166001600160a01b0319831681178455604051919092169283917f8be0079c531659141344cd1fd0a4f28419497f9722a3daafe3b4186f6b6457e09190a35050565b610b4f8061007e6000396000f3fe608060405234801561001057600080fd5b506004361061007d5760003560e01c8063715018a61161005b578063715018a6146100d35780638da5cb5b146100db578063b9b13e30146100f6578063f2fde38b1461010957600080fd5b80631cc0a470146100825780631e424f95146100975780635372a9ce146100c0575b600080fd5b6100956100903660046109b3565b61011c565b005b6100aa6100a53660046109fe565b610286565b6040516100b79190610a22565b60405180910390f35b6100956100ce366004610a6f565b610453565b610095610616565b6000546040516001600160a01b0390911681526020016100b7565b6100aa6101043660046109fe565b61062a565b610095610117366004610a6f565b6107f0565b610124610880565b6000816001600160a01b0316638da5cb5b6040518163ffffffff1660e01b8152600401602060405180830381865afa158015610164573d6000803e3d6000fd5b505050506040513d601f19601f820116820180604052508101906101889190610a8c565b90508215610281576101f460038054806020026020016040519081016040528092919081815260200182805480156101e957602002820191906000526020600020905b81546001600160a01b031681526001909101906020018083116101cb575b5050505050826108da565b6102365760038054829190610207610aa9565b9060005260206000200160006101000a8154816001600160a01b0302191690836001600160a01b031602179055505b6001600160a01b038181166000908152600160208181526040832080549283018155835290912001805473ffffffffffffffffffffffffffffffffffffffff19169184169190911790555b505050565b60608060005b60045481101561044c57600060026000600484815481106102af576102af610aa9565b60009182526020808320909101546001600160a01b0316835282810193909352604091820190208054825181850281018501909352808352919290919083018282801561032557602002820191906000526020600020905b81546001600160a01b03168152600190910190602001808311610307575b5050505050905060005b81518110156104375785600181111561034a5761034a610abf565b82828151811061035c5761035c610aa9565b60200260200101516001600160a01b031663db0881a16040518163ffffffff1660e01b8152600401602060405180830381865afa1580156103a1573d6000803e3d6000fd5b505050506040513d601f19601f820116820180604052508101906103c59190610ad5565b60018111156103d6576103d6610abf565b03610425578181815181106103ed576103ed610aa9565b602090810291909101015184518590610404610aa9565b60200260200101906001600160a01b031690816001600160a01b0316815250505b8061042f81610af2565b91505061032f565b5050808061044490610af2565b91505061028c565b5092915050565b6000816001600160a01b0316638da5cb5b6040518163ffffffff1660e01b8152600401602060405180830381865afa158015610493573d6000803e3d6000fd5b505050506040513d601f19601f820116820180604052508101906104b79190610a8c565b90506001600160a01b038116610509576040517f59e3460e0000000000000000000000000000000000000000000000000000000081526001600160a01b03821660048201526024015b60405180910390fd5b61056b60048054806020026020016040519081016040528092919081815260200182805480156101e9576020028201919060005260206000209081546001600160a01b031681526001909101906020018083116101cb575050505050826108da565b6105c857600480546001810182556000919091527f8a35acfbc15ff81a39ae7d344fd709f28e8600b4aa8c65c6b64bfe7fe36bd19b01805473ffffffffffffffffffffffffffffffffffffffff19166001600160a01b0383161790555b6001600160a01b03908116600090815260026020908152604082208054600181018255908352912001805473ffffffffffffffffffffffffffffffffffffffff191692909116919091179055565b61061e610880565b6106286000610941565b565b60608060005b60035481101561044c576000600160006003848154811061065357610653610aa9565b60009182526020808320909101546001600160a01b031683528281019390935260409182019020805482518185028101850190935280835291929091908301828280156106c957602002820191906000526020600020905b81546001600160a01b031681526001909101906020018083116106ab575b5050505050905060005b81518110156107db578560018111156106ee576106ee610abf565b82828151811061070057610700610aa9565b60200260200101516001600160a01b031663db0881a16040518163ffffffff1660e01b8152600401602060405180830381865afa158015610745573d6000803e3d6000fd5b505050506040513d601f19601f820116820180604052508101906107699190610ad5565b600181111561077a5761077a610abf565b036107c95781818151811061079157610791610aa9565b6020908102919091010151845185906107a8610aa9565b60200260200101906001600160a01b031690816001600160a01b0316815250505b806107d381610af2565b9150506106d3565b505080806107e890610af2565b915050610630565b6107f8610880565b6001600160a01b0381166108745760405162461bcd60e51b815260206004820152602660248201527f4f776e61626c653a206e6577206f776e657220697320746865207a65726f206160448201527f64647265737300000000000000000000000000000000000000000000000000006064820152608401610500565b61087d81610941565b50565b6000546001600160a01b031633146106285760405162461bcd60e51b815260206004820181905260248201527f4f776e61626c653a2063616c6c6572206973206e6f7420746865206f776e65726044820152606401610500565b6000805b835181101561093557826001600160a01b031684828151811061090357610903610aa9565b60200260200101516001600160a01b03160361092357600191505061093b565b8061092d81610af2565b9150506108de565b50600090505b92915050565b600080546001600160a01b0383811673ffffffffffffffffffffffffffffffffffffffff19831681178455604051919092169283917f8be0079c531659141344cd1fd0a4f28419497f9722a3daafe3b4186f6b6457e09190a35050565b6001600160a01b038116811461087d57600080fd5b600080604083850312156109c657600080fd5b823580151581146109d657600080fd5b915060208301356109e68161099e565b809150509250929050565b6002811061087d57600080fd5b600060208284031215610a1057600080fd5b8135610a1b816109f1565b9392505050565b6020808252825182820181905260009190848201906040850190845b81811015610a635783516001600160a01b031683529284019291840191600101610a3e565b50909695505050505050565b600060208284031215610a8157600080fd5b8135610a1b8161099e565b600060208284031215610a9e57600080fd5b8151610a1b8161099e565b634e487b7160e01b600052603260045260246000fd5b634e487b7160e01b600052602160045260246000fd5b600060208284031215610ae757600080fd5b8151610a1b816109f1565b600060018201610b1257634e487b7160e01b600052601160045260246000fd5b506001019056fea264697066735822122050bef3cc396a1d776c1d9fbdb88edfbf739f18e3df26fbba12b05bb5cd4ce07164736f6c63430008100033",
  "linkReferences": {},
  "deployedLinkReferences": {}
}