{
  "_format": "hh-sol-artifact-1",
  "contractName": "IdentityLendingService",
  "sourceName": "contracts/mocks/IdentityLendingService.sol",
  "abi": [
    {
      "inputs": [
        {
          "internalType": "contract ACME",
          "name": "acmeLending",
          "type": "address"
        },
        {
          "internalType": "contract UserIdentityFactory",
          "name": "userIdentityFactory",
          "type": "address"
        }
      ],
      "stateMutability": "nonpayable",
      "type": "constructor"
    },
    {
      "inputs": [
        {
          "internalType": "uint256",
          "name": "amount",
          "type": "uint256"
        }
      ],
      "name": "InvalidAmount",
      "type": "error"
    },
    {
      "anonymous": false,
      "inputs": [
        {
          "indexed": true,
          "internalType": "uint256",
          "name": "listingId",
          "type": "uint256"
        },
        {
          "indexed": true,
          "internalType": "address",
          "name": "borrower",
          "type": "address"
        },
        {
          "indexed": true,
          "internalType": "address",
          "name": "currency",
          "type": "address"
        },
        {
          "indexed": false,
          "internalType": "uint256",
          "name": "amount",
          "type": "uint256"
        },
        {
          "indexed": false,
          "internalType": "uint256",
          "name": "duration",
          "type": "uint256"
        }
      ],
      "name": "Borrow",
      "type": "event"
    },
    {
      "anonymous": false,
      "inputs": [
        {
          "indexed": true,
          "internalType": "uint256",
          "name": "listingId",
          "type": "uint256"
        },
        {
          "indexed": true,
          "internalType": "address",
          "name": "lender",
          "type": "address"
        },
        {
          "indexed": true,
          "internalType": "address",
          "name": "currency",
          "type": "address"
        },
        {
          "indexed": false,
          "internalType": "uint256",
          "name": "amount",
          "type": "uint256"
        }
      ],
      "name": "Lend",
      "type": "event"
    },
    {
      "anonymous": false,
      "inputs": [
        {
          "indexed": true,
          "internalType": "address",
          "name": "currency",
          "type": "address"
        },
        {
          "indexed": true,
          "internalType": "uint256",
          "name": "listingId",
          "type": "uint256"
        }
      ],
      "name": "ListingCreated",
      "type": "event"
    },
    {
      "anonymous": false,
      "inputs": [
        {
          "indexed": true,
          "internalType": "address",
          "name": "previousOwner",
          "type": "address"
        },
        {
          "indexed": true,
          "internalType": "address",
          "name": "newOwner",
          "type": "address"
        }
      ],
      "name": "OwnershipTransferred",
      "type": "event"
    },
    {
      "anonymous": false,
      "inputs": [
        {
          "indexed": true,
          "internalType": "uint256",
          "name": "listingId",
          "type": "uint256"
        },
        {
          "indexed": true,
          "internalType": "address",
          "name": "borrower",
          "type": "address"
        },
        {
          "indexed": true,
          "internalType": "address",
          "name": "currency",
          "type": "address"
        },
        {
          "indexed": false,
          "internalType": "uint256",
          "name": "amount",
          "type": "uint256"
        }
      ],
      "name": "Pay",
      "type": "event"
    },
    {
      "anonymous": false,
      "inputs": [
        {
          "indexed": true,
          "internalType": "uint256",
          "name": "listingId",
          "type": "uint256"
        },
        {
          "indexed": true,
          "internalType": "address",
          "name": "withdrawer",
          "type": "address"
        },
        {
          "indexed": true,
          "internalType": "address",
          "name": "currency",
          "type": "address"
        },
        {
          "indexed": false,
          "internalType": "uint256",
          "name": "amount",
          "type": "uint256"
        }
      ],
      "name": "Withdraw",
      "type": "event"
    },
    {
      "inputs": [
        {
          "components": [
            {
              "internalType": "uint256",
              "name": "id",
              "type": "uint256"
            },
            {
              "internalType": "uint256",
              "name": "minAmount",
              "type": "uint256"
            },
            {
              "internalType": "uint256",
              "name": "maxAmount",
              "type": "uint256"
            },
            {
              "internalType": "uint256",
              "name": "minDuration",
              "type": "uint256"
            },
            {
              "internalType": "uint256",
              "name": "maxDuration",
              "type": "uint256"
            },
            {
              "internalType": "uint256",
              "name": "interestRate",
              "type": "uint256"
            },
            {
              "internalType": "uint256",
              "name": "loanToValue",
              "type": "uint256"
            },
            {
              "internalType": "address",
              "name": "loanToValueTokenAddr",
              "type": "address"
            },
            {
              "internalType": "address",
              "name": "currency",
              "type": "address"
            },
            {
              "internalType": "enum PayBackOption",
              "name": "payBackOption",
              "type": "uint8"
            },
            {
              "internalType": "bool",
              "name": "enabled",
              "type": "bool"
            },
            {
              "internalType": "string",
              "name": "name",
              "type": "string"
            }
          ],
          "internalType": "struct ServiceListing",
          "name": "listing",
          "type": "tuple"
        }
      ],
      "name": "addListing",
      "outputs": [
        {
          "internalType": "uint256",
          "name": "",
          "type": "uint256"
        }
      ],
      "stateMutability": "nonpayable",
      "type": "function"
    },
    {
      "inputs": [
        {
          "internalType": "uint256",
          "name": "listingId",
          "type": "uint256"
        }
      ],
      "name": "disableListing",
      "outputs": [],
      "stateMutability": "nonpayable",
      "type": "function"
    },
    {
      "inputs": [
        {
          "internalType": "address",
          "name": "currency",
          "type": "address"
        }
      ],
      "name": "getBalance",
      "outputs": [
        {
          "internalType": "uint256",
          "name": "",
          "type": "uint256"
        }
      ],
      "stateMutability": "view",
      "type": "function"
    },
    {
      "inputs": [
        {
          "internalType": "uint256",
          "name": "listingId",
          "type": "uint256"
        }
      ],
      "name": "getListing",
      "outputs": [
        {
          "components": [
            {
              "internalType": "uint256",
              "name": "id",
              "type": "uint256"
            },
            {
              "internalType": "uint256",
              "name": "minAmount",
              "type": "uint256"
            },
            {
              "internalType": "uint256",
              "name": "maxAmount",
              "type": "uint256"
            },
            {
              "internalType": "uint256",
              "name": "minDuration",
              "type": "uint256"
            },
            {
              "internalType": "uint256",
              "name": "maxDuration",
              "type": "uint256"
            },
            {
              "internalType": "uint256",
              "name": "interestRate",
              "type": "uint256"
            },
            {
              "internalType": "uint256",
              "name": "loanToValue",
              "type": "uint256"
            },
            {
              "internalType": "address",
              "name": "loanToValueTokenAddr",
              "type": "address"
            },
            {
              "internalType": "address",
              "name": "currency",
              "type": "address"
            },
            {
              "internalType": "enum PayBackOption",
              "name": "payBackOption",
              "type": "uint8"
            },
            {
              "internalType": "bool",
              "name": "enabled",
              "type": "bool"
            },
            {
              "internalType": "string",
              "name": "name",
              "type": "string"
            }
          ],
          "internalType": "struct ServiceListing",
          "name": "",
          "type": "tuple"
        }
      ],
      "stateMutability": "view",
      "type": "function"
    },
    {
      "inputs": [],
      "name": "getListingsCount",
      "outputs": [
        {
          "internalType": "uint256",
          "name": "",
          "type": "uint256"
        }
      ],
      "stateMutability": "view",
      "type": "function"
    },
    {
      "inputs": [],
      "name": "lend",
      "outputs": [],
      "stateMutability": "payable",
      "type": "function"
    },
    {
      "inputs": [
        {
          "internalType": "uint256",
          "name": "",
          "type": "uint256"
        }
      ],
      "name": "listings",
      "outputs": [
        {
          "internalType": "uint256",
          "name": "id",
          "type": "uint256"
        },
        {
          "internalType": "uint256",
          "name": "minAmount",
          "type": "uint256"
        },
        {
          "internalType": "uint256",
          "name": "maxAmount",
          "type": "uint256"
        },
        {
          "internalType": "uint256",
          "name": "minDuration",
          "type": "uint256"
        },
        {
          "internalType": "uint256",
          "name": "maxDuration",
          "type": "uint256"
        },
        {
          "internalType": "uint256",
          "name": "interestRate",
          "type": "uint256"
        },
        {
          "internalType": "uint256",
          "name": "loanToValue",
          "type": "uint256"
        },
        {
          "internalType": "address",
          "name": "loanToValueTokenAddr",
          "type": "address"
        },
        {
          "internalType": "address",
          "name": "currency",
          "type": "address"
        },
        {
          "internalType": "enum PayBackOption",
          "name": "payBackOption",
          "type": "uint8"
        },
        {
          "internalType": "bool",
          "name": "enabled",
          "type": "bool"
        },
        {
          "internalType": "string",
          "name": "name",
          "type": "string"
        }
      ],
      "stateMutability": "view",
      "type": "function"
    },
    {
      "inputs": [],
      "name": "owner",
      "outputs": [
        {
          "internalType": "address",
          "name": "",
          "type": "address"
        }
      ],
      "stateMutability": "view",
      "type": "function"
    },
    {
      "inputs": [],
      "name": "renounceOwnership",
      "outputs": [],
      "stateMutability": "nonpayable",
      "type": "function"
    },
    {
      "inputs": [],
      "name": "serviceType",
      "outputs": [
        {
          "internalType": "enum ServiceType",
          "name": "",
          "type": "uint8"
        }
      ],
      "stateMutability": "view",
      "type": "function"
    },
    {
      "inputs": [
        {
          "internalType": "address",
          "name": "newOwner",
          "type": "address"
        }
      ],
      "name": "transferOwnership",
      "outputs": [],
      "stateMutability": "nonpayable",
      "type": "function"
    },
    {
      "inputs": [
        {
          "components": [
            {
              "internalType": "uint256",
              "name": "id",
              "type": "uint256"
            },
            {
              "internalType": "uint256",
              "name": "minAmount",
              "type": "uint256"
            },
            {
              "internalType": "uint256",
              "name": "maxAmount",
              "type": "uint256"
            },
            {
              "internalType": "uint256",
              "name": "minDuration",
              "type": "uint256"
            },
            {
              "internalType": "uint256",
              "name": "maxDuration",
              "type": "uint256"
            },
            {
              "internalType": "uint256",
              "name": "interestRate",
              "type": "uint256"
            },
            {
              "internalType": "uint256",
              "name": "loanToValue",
              "type": "uint256"
            },
            {
              "internalType": "address",
              "name": "loanToValueTokenAddr",
              "type": "address"
            },
            {
              "internalType": "address",
              "name": "currency",
              "type": "address"
            },
            {
              "internalType": "enum PayBackOption",
              "name": "payBackOption",
              "type": "uint8"
            },
            {
              "internalType": "bool",
              "name": "enabled",
              "type": "bool"
            },
            {
              "internalType": "string",
              "name": "name",
              "type": "string"
            }
          ],
          "internalType": "struct ServiceListing",
          "name": "listing",
          "type": "tuple"
        }
      ],
      "name": "updateListing",
      "outputs": [],
      "stateMutability": "nonpayable",
      "type": "function"
    },
    {
      "inputs": [],
      "name": "withdraw",
      "outputs": [],
      "stateMutability": "nonpayable",
      "type": "function"
    }
  ],
  "bytecode": "0x60806040523480156200001157600080fd5b5060405162001841380380620018418339810160408190526200003491620000e7565b6200003f336200007e565b6000805460ff60a01b19169055600380546001600160a01b039384166001600160a01b0319918216179091556004805492909316911617905562000126565b600080546001600160a01b038381166001600160a01b0319831681178455604051919092169283917f8be0079c531659141344cd1fd0a4f28419497f9722a3daafe3b4186f6b6457e09190a35050565b6001600160a01b0381168114620000e457600080fd5b50565b60008060408385031215620000fb57600080fd5b82516200010881620000ce565b60208401519092506200011b81620000ce565b809150509250929050565b61170b80620001366000396000f3fe6080604052600436106100d25760003560e01c806397dffc611161007f578063dc419a0911610059578063dc419a09146101f6578063de74e57b14610216578063f2fde38b1461024e578063f8b2cb4f1461026e57600080fd5b806397dffc61146101a1578063cbaa068f146101a9578063db0881a1146101c857600080fd5b80635c3fec1e116100b05780635c3fec1e14610144578063715018a6146101645780638da5cb5b1461017957600080fd5b8063107a274a146100d75780633ccfd60b1461010d5780634085aaac14610124575b600080fd5b3480156100e357600080fd5b506100f76100f2366004610ff7565b61028e565b604051610104919061108a565b60405180910390f35b34801561011957600080fd5b50610122610403565b005b34801561013057600080fd5b5061012261013f36600461128d565b6106c0565b34801561015057600080fd5b5061012261015f366004610ff7565b6107ee565b34801561017057600080fd5b50610122610814565b34801561018557600080fd5b506000546040516001600160a01b039091168152602001610104565b610122610828565b3480156101b557600080fd5b506002545b604051908152602001610104565b3480156101d457600080fd5b506000546101e990600160a01b900460ff1681565b604051610104919061138c565b34801561020257600080fd5b506101ba61021136600461128d565b610a4a565b34801561022257600080fd5b50610236610231366004610ff7565b610bd0565b6040516101049c9b9a999897969594939291906113a6565b34801561025a57600080fd5b50610122610269366004611429565b610ccf565b34801561027a57600080fd5b506101ba610289366004611429565b610d5f565b610296610f73565b600082815260016020818152604092839020835161018081018552815481529281015491830191909152600281015492820192909252600380830154606083015260048301546080830152600583015460a0830152600683015460c083015260078301546001600160a01b0390811660e08401526008840154908116610100840152919291610120840191600160a01b90910460ff169081111561033c5761033c611010565b600381111561034d5761034d611010565b81526008820154600160a81b900460ff161515602082015260098201805460409092019161037a9061144d565b80601f01602080910402602001604051908101604052809291908181526020018280546103a69061144d565b80156103f35780601f106103c8576101008083540402835291602001916103f3565b820191906000526020600020905b8154815290600101906020018083116103d657829003601f168201915b5050505050815250509050919050565b600480546040516316caac1b60e21b815233928101929092526001600160a01b031690635b2ab06c90602401600060405180830381600087803b15801561044957600080fd5b505af115801561045d573d6000803e3d6000fd5b505060048054604051632fea7b8160e01b81523392810192909252600093506001600160a01b03169150632fea7b8190602401602060405180830381865afa1580156104ad573d6000803e3d6000fd5b505050506040513d601f19601f820116820180604052508101906104d19190611487565b6003546040805160048082526024820183526020820180516001600160e01b0316629032ff60e51b179052915163d79f44eb60e01b81529394506000936001600160a01b038087169463d79f44eb946105319491909216929091016114a4565b600060405180830381865afa15801561054e573d6000803e3d6000fd5b505050506040513d6000823e601f3d908101601f1916820160405261057691908101906114c6565b90506000808280602001905181019061058f919061153d565b600354604051602481018490529294509092506001600160a01b038087169263621091c2929091169060440160408051601f198184030181529181526020820180516001600160e01b03167f2e1a7d4d000000000000000000000000000000000000000000000000000000001790525160e084901b7fffffffff000000000000000000000000000000000000000000000000000000001681526106369291906004016114a4565b6020604051808303816000875af1158015610655573d6000803e3d6000fd5b505050506040513d601f19601f820116820180604052508101906106799190611561565b50600033817ffeb2000dca3e617cd6f3a8bbb63014bb54a124aac6ccbf73ee7229b4cd01f1206106a98587611594565b60405190815260200160405180910390a450505050565b6106c8610ebc565b805160009081526001602081815260409283902084518155908401519181019190915590820151600282015560608201516003808301919091556080830151600483015560a0830151600583015560c0830151600683015560e083015160078301805473ffffffffffffffffffffffffffffffffffffffff199081166001600160a01b039384161790915561010085015160088501805492831691909316908117835561012086015186959490939274ffffffffffffffffffffffffffffffffffffffffff191690911790600160a01b9084908111156107aa576107aa611010565b0217905550610140820151600882018054911515600160a81b0260ff60a81b1990921691909117905561016082015160098201906107e890826115fc565b50505050565b6107f6610ebc565b6000908152600160205260409020600801805460ff60a81b19169055565b61081c610ebc565b6108266000610f16565b565b34600003610869576040517f3728b83d0000000000000000000000000000000000000000000000000000000081523460048201526024015b60405180910390fd5b600480546040516316caac1b60e21b815233928101929092526001600160a01b031690635b2ab06c90602401600060405180830381600087803b1580156108af57600080fd5b505af11580156108c3573d6000803e3d6000fd5b505060048054604051632fea7b8160e01b81523392810192909252600093506001600160a01b03169150632fea7b8190602401602060405180830381865afa158015610913573d6000803e3d6000fd5b505050506040513d601f19601f820116820180604052508101906109379190611487565b6003546040805160048082526024820183526020820180516001600160e01b03167fd0e30db00000000000000000000000000000000000000000000000000000000017905291517fc89acc860000000000000000000000000000000000000000000000000000000081529394506001600160a01b038086169463c89acc869434946109c99491909316929091016114a4565b60206040518083038185885af11580156109e7573d6000803e3d6000fd5b50505050506040513d601f19601f82011682018060405250810190610a0c9190611561565b50604051348152600090339082907f77c494147cc26c9ccb1f3f1926fb5bffa128633d935fdf7147dff0da6f740db49060200160405180910390a450565b6000610a54610ebc565b6002805460009182610a65836116bc565b9091555080845260008181526001602081815260409283902087518155908701519181019190915590850151600282015560608501516003808301919091556080860151600483015560a0860151600583015560c0860151600683015560e086015160078301805473ffffffffffffffffffffffffffffffffffffffff199081166001600160a01b039384161790915561010088015160088501805492831691909316908117835561012089015195965088959374ffffffffffffffffffffffffffffffffffffffffff199092161790600160a01b908490811115610b4c57610b4c611010565b0217905550610140820151600882018054911515600160a81b0260ff60a81b199092169190911790556101608201516009820190610b8a90826115fc565b50505061010083015160405182916001600160a01b0316907ff060b874355dd22d0bc251d61fca3b6d902778149a3048748276c9ee78ead56c90600090a390505b919050565b600160208190526000918252604090912080549181015460028201546003830154600484015460058501546006860154600787015460088801546009890180549899979896979596949593946001600160a01b03938416949383169360ff600160a01b8504811694600160a81b900416929091610c4c9061144d565b80601f0160208091040260200160405190810160405280929190818152602001828054610c789061144d565b8015610cc55780601f10610c9a57610100808354040283529160200191610cc5565b820191906000526020600020905b815481529060010190602001808311610ca857829003601f168201915b505050505090508c565b610cd7610ebc565b6001600160a01b038116610d535760405162461bcd60e51b815260206004820152602660248201527f4f776e61626c653a206e6577206f776e657220697320746865207a65726f206160448201527f64647265737300000000000000000000000000000000000000000000000000006064820152608401610860565b610d5c81610f16565b50565b60048054604051632fea7b8160e01b8152339281019290925260009182916001600160a01b031690632fea7b8190602401602060405180830381865afa158015610dad573d6000803e3d6000fd5b505050506040513d601f19601f82011682018060405250810190610dd19190611487565b90506001600160a01b038116610dea5750600092915050565b6003546040805160048082526024820183526020820180516001600160e01b0316629032ff60e51b179052915163d79f44eb60e01b81526000936001600160a01b038087169463d79f44eb94610e45949390921692016114a4565b600060405180830381865afa158015610e62573d6000803e3d6000fd5b505050506040513d6000823e601f3d908101601f19168201604052610e8a91908101906114c6565b905060008082806020019051810190610ea3919061153d565b9092509050610eb28183611594565b9695505050505050565b6000546001600160a01b031633146108265760405162461bcd60e51b815260206004820181905260248201527f4f776e61626c653a2063616c6c6572206973206e6f7420746865206f776e65726044820152606401610860565b600080546001600160a01b0383811673ffffffffffffffffffffffffffffffffffffffff19831681178455604051919092169283917f8be0079c531659141344cd1fd0a4f28419497f9722a3daafe3b4186f6b6457e09190a35050565b6040518061018001604052806000815260200160008152602001600081526020016000815260200160008152602001600081526020016000815260200160006001600160a01b0316815260200160006001600160a01b0316815260200160006003811115610fe357610fe3611010565b815260006020820152606060409091015290565b60006020828403121561100957600080fd5b5035919050565b634e487b7160e01b600052602160045260246000fd5b6004811061103657611036611010565b9052565b60005b8381101561105557818101518382015260200161103d565b50506000910152565b6000815180845261107681602086016020860161103a565b601f01601f19169290920160200192915050565b6020815281516020820152602082015160408201526040820151606082015260608201516080820152608082015160a082015260a082015160c082015260c082015160e0820152600060e08301516101006110ef818501836001600160a01b03169052565b840151905061012061110b848201836001600160a01b03169052565b840151905061014061111f84820183611026565b84015190506101606111348482018315159052565b84015161018084810152905061114e6101a084018261105e565b949350505050565b634e487b7160e01b600052604160045260246000fd5b604051610180810167ffffffffffffffff8111828210171561119057611190611156565b60405290565b604051601f8201601f1916810167ffffffffffffffff811182821017156111bf576111bf611156565b604052919050565b6001600160a01b0381168114610d5c57600080fd5b8035610bcb816111c7565b803560048110610bcb57600080fd5b8015158114610d5c57600080fd5b8035610bcb816111f6565b600067ffffffffffffffff82111561122957611229611156565b50601f01601f191660200190565b600082601f83011261124857600080fd5b813561125b6112568261120f565b611196565b81815284602083860101111561127057600080fd5b816020850160208301376000918101602001919091529392505050565b60006020828403121561129f57600080fd5b813567ffffffffffffffff808211156112b757600080fd5b9083019061018082860312156112cc57600080fd5b6112d461116c565b823581526020830135602082015260408301356040820152606083013560608201526080830135608082015260a083013560a082015260c083013560c082015261132060e084016111dc565b60e08201526101006113338185016111dc565b908201526101206113458482016111e7565b90820152610140611357848201611204565b90820152610160838101358381111561136f57600080fd5b61137b88828701611237565b918301919091525095945050505050565b60208101600283106113a0576113a0611010565b91905290565b60006101808e83528d60208401528c60408401528b60608401528a60808401528960a08401528860c08401526001600160a01b0380891660e0850152808816610100850152506113fa610120840187611026565b841515610140840152806101608401526114168184018561105e565b9f9e505050505050505050505050505050565b60006020828403121561143b57600080fd5b8135611446816111c7565b9392505050565b600181811c9082168061146157607f821691505b60208210810361148157634e487b7160e01b600052602260045260246000fd5b50919050565b60006020828403121561149957600080fd5b8151611446816111c7565b6001600160a01b038316815260406020820152600061114e604083018461105e565b6000602082840312156114d857600080fd5b815167ffffffffffffffff8111156114ef57600080fd5b8201601f8101841361150057600080fd5b805161150e6112568261120f565b81815285602083850101111561152357600080fd5b61153482602083016020860161103a565b95945050505050565b6000806040838503121561155057600080fd5b505080516020909101519092909150565b60006020828403121561157357600080fd5b8151611446816111f6565b634e487b7160e01b600052601160045260246000fd5b808201808211156115a7576115a761157e565b92915050565b601f8211156115f757600081815260208120601f850160051c810160208610156115d45750805b601f850160051c820191505b818110156115f3578281556001016115e0565b5050505b505050565b815167ffffffffffffffff81111561161657611616611156565b61162a81611624845461144d565b846115ad565b602080601f83116001811461165f57600084156116475750858301515b600019600386901b1c1916600185901b1785556115f3565b600085815260208120601f198616915b8281101561168e5788860151825594840194600190910190840161166f565b50858210156116ac5787850151600019600388901b60f8161c191681555b5050505050600190811b01905550565b6000600182016116ce576116ce61157e565b506001019056fea26469706673582212208d85b2ab772e8b01c01ecbeab7e326fee1e66ec983abbb00904d06580af2723164736f6c63430008100033",
  "linkReferences": {},
  "deployedLinkReferences": {}
}