{
  "_format": "hh-sol-artifact-1",
  "contractName": "Providers",
  "sourceName": "contracts/services/Providers.sol",
  "abi": [
    {
      "inputs": [
        {
          "internalType": "address",
          "name": "provider",
          "type": "address"
        }
      ],
      "name": "InvalidProviderAddress",
      "type": "error"
    },
    {
      "anonymous": false,
      "inputs": [
        {
          "indexed": true,
          "internalType": "address",
          "name": "previousOwner",
          "type": "address"
        },
        {
          "indexed": true,
          "internalType": "address",
          "name": "newOwner",
          "type": "address"
        }
      ],
      "name": "OwnershipTransferred",
      "type": "event"
    },
    {
      "inputs": [
        {
          "internalType": "contract Service",
          "name": "service",
          "type": "address"
        }
      ],
      "name": "addService",
      "outputs": [],
      "stateMutability": "nonpayable",
      "type": "function"
    },
    {
      "inputs": [],
      "name": "getServices",
      "outputs": [
        {
          "internalType": "contract Service[]",
          "name": "",
          "type": "address[]"
        }
      ],
      "stateMutability": "view",
      "type": "function"
    },
    {
      "inputs": [],
      "name": "owner",
      "outputs": [
        {
          "internalType": "address",
          "name": "",
          "type": "address"
        }
      ],
      "stateMutability": "view",
      "type": "function"
    },
    {
      "inputs": [],
      "name": "renounceOwnership",
      "outputs": [],
      "stateMutability": "nonpayable",
      "type": "function"
    },
    {
      "inputs": [
        {
          "internalType": "address",
          "name": "newOwner",
          "type": "address"
        }
      ],
      "name": "transferOwnership",
      "outputs": [],
      "stateMutability": "nonpayable",
      "type": "function"
    },
    {
      "inputs": [
        {
          "internalType": "bool",
          "name": "approved",
          "type": "bool"
        },
        {
          "internalType": "contract Service",
          "name": "service",
          "type": "address"
        }
      ],
      "name": "validate",
      "outputs": [],
      "stateMutability": "nonpayable",
      "type": "function"
    }
  ],
  "bytecode": "0x608060405234801561001057600080fd5b5061001a3361001f565b61006f565b600080546001600160a01b038381166001600160a01b0319831681178455604051919092169283917f8be0079c531659141344cd1fd0a4f28419497f9722a3daafe3b4186f6b6457e09190a35050565b6108cf8061007e6000396000f3fe608060405234801561001057600080fd5b50600436106100725760003560e01c8063754178511161005057806375417851146100a75780638da5cb5b146100c5578063f2fde38b146100e057600080fd5b80631cc0a470146100775780635372a9ce1461008c578063715018a61461009f575b600080fd5b61008a61008536600461075f565b6100f3565b005b61008a61009a36600461079d565b61025e565b61008a61041d565b6100af610431565b6040516100bc91906107c1565b60405180910390f35b6000546040516001600160a01b0390911681526020016100bc565b61008a6100ee36600461079d565b6105a9565b6100fb610639565b6000816001600160a01b0316638da5cb5b6040518163ffffffff1660e01b8152600401602060405180830381865afa15801561013b573d6000803e3d6000fd5b505050506040513d601f19601f8201168201806040525081019061015f919061080e565b90508215610259576101cb60038054806020026020016040519081016040528092919081815260200182805480156101c057602002820191906000526020600020905b81546001600160a01b031681526001909101906020018083116101a2575b505050505082610693565b61021b57600380546001810182556000919091527fc2575a0e9e593c00f959f8c92f12db2869c3395a3b0502d05e2516446f71f85b0180546001600160a01b0319166001600160a01b0383161790555b6001600160a01b03818116600090815260016020818152604083208054928301815583529091200180546001600160a01b0319169184169190911790555b505050565b6000816001600160a01b0316638da5cb5b6040518163ffffffff1660e01b8152600401602060405180830381865afa15801561029e573d6000803e3d6000fd5b505050506040513d601f19601f820116820180604052508101906102c2919061080e565b90506001600160a01b038116610314576040517f59e3460e0000000000000000000000000000000000000000000000000000000081526001600160a01b03821660048201526024015b60405180910390fd5b61037660048054806020026020016040519081016040528092919081815260200182805480156101c0576020028201919060005260206000209081546001600160a01b031681526001909101906020018083116101a257505050505082610693565b6103c657600480546001810182556000919091527f8a35acfbc15ff81a39ae7d344fd709f28e8600b4aa8c65c6b64bfe7fe36bd19b0180546001600160a01b0319166001600160a01b0383161790555b6001600160a01b038181166000908152600260209081526040822080546001810182559083529082200180546001600160a01b03191692851692909217909155600580549161041483610841565b91905055505050565b610425610639565b61042f60006106fa565b565b6060600060055467ffffffffffffffff8111156104505761045061085a565b604051908082528060200260200182016040528015610479578160200160208202803683370190505b50905060005b6003548110156105a357600060016000600384815481106104a2576104a2610870565b60009182526020808320909101546001600160a01b0316835282810193909352604091820190208054825181850281018501909352808352919290919083018282801561051857602002820191906000526020600020905b81546001600160a01b031681526001909101906020018083116104fa575b5050505050905060005b815181101561058e5781818151811061053d5761053d610870565b602002602001015184600186516105549190610886565b8151811061056457610564610870565b6001600160a01b03909216602092830291909101909101528061058681610841565b915050610522565b5050808061059b90610841565b91505061047f565b50919050565b6105b1610639565b6001600160a01b03811661062d5760405162461bcd60e51b815260206004820152602660248201527f4f776e61626c653a206e6577206f776e657220697320746865207a65726f206160448201527f6464726573730000000000000000000000000000000000000000000000000000606482015260840161030b565b610636816106fa565b50565b6000546001600160a01b0316331461042f5760405162461bcd60e51b815260206004820181905260248201527f4f776e61626c653a2063616c6c6572206973206e6f7420746865206f776e6572604482015260640161030b565b6000805b83518110156106ee57826001600160a01b03168482815181106106bc576106bc610870565b60200260200101516001600160a01b0316036106dc5760019150506106f4565b806106e681610841565b915050610697565b50600090505b92915050565b600080546001600160a01b038381166001600160a01b0319831681178455604051919092169283917f8be0079c531659141344cd1fd0a4f28419497f9722a3daafe3b4186f6b6457e09190a35050565b6001600160a01b038116811461063657600080fd5b6000806040838503121561077257600080fd5b8235801515811461078257600080fd5b915060208301356107928161074a565b809150509250929050565b6000602082840312156107af57600080fd5b81356107ba8161074a565b9392505050565b6020808252825182820181905260009190848201906040850190845b818110156108025783516001600160a01b0316835292840192918401916001016107dd565b50909695505050505050565b60006020828403121561082057600080fd5b81516107ba8161074a565b634e487b7160e01b600052601160045260246000fd5b6000600182016108535761085361082b565b5060010190565b634e487b7160e01b600052604160045260246000fd5b634e487b7160e01b600052603260045260246000fd5b818103818111156106f4576106f461082b56fea26469706673582212203512249d6bb24ae37ed9bf0200ee110cb84c5cb29042ac9c856169d1fd4b8b4764736f6c63430008100033",
  "linkReferences": {},
  "deployedLinkReferences": {}
}