{
  "_format": "hh-sol-artifact-1",
  "contractName": "TropykusBorrowingService",
  "sourceName": "contracts/tropykus/TropykusBorrowingService.sol",
  "abi": [
    {
      "inputs": [
        {
          "internalType": "contract UserIdentityFactory",
          "name": "userIdentityFactory",
          "type": "address"
        },
        {
          "components": [
            {
              "internalType": "address",
              "name": "comptroller",
              "type": "address"
            },
            {
              "internalType": "address",
              "name": "oracle",
              "type": "address"
            },
            {
              "internalType": "address",
              "name": "crbtc",
              "type": "address"
            },
            {
              "internalType": "address",
              "name": "cdoc",
              "type": "address"
            }
          ],
          "internalType": "struct TropykusBorrowingService.TropykusContracts",
          "name": "contracts",
          "type": "tuple"
        }
      ],
      "stateMutability": "nonpayable",
      "type": "constructor"
    },
    {
      "inputs": [
        {
          "internalType": "uint256",
          "name": "amount",
          "type": "uint256"
        }
      ],
      "name": "InvalidAmount",
      "type": "error"
    },
    {
      "inputs": [
        {
          "internalType": "uint256",
          "name": "amount",
          "type": "uint256"
        },
        {
          "internalType": "uint256",
          "name": "expectedAmount",
          "type": "uint256"
        }
      ],
      "name": "InvalidCollateralAmount",
      "type": "error"
    },
    {
      "anonymous": false,
      "inputs": [
        {
          "indexed": true,
          "internalType": "uint256",
          "name": "index",
          "type": "uint256"
        },
        {
          "indexed": true,
          "internalType": "address",
          "name": "borrower",
          "type": "address"
        },
        {
          "indexed": true,
          "internalType": "address",
          "name": "currency",
          "type": "address"
        },
        {
          "indexed": false,
          "internalType": "uint256",
          "name": "amount",
          "type": "uint256"
        },
        {
          "indexed": false,
          "internalType": "uint256",
          "name": "duration",
          "type": "uint256"
        }
      ],
      "name": "Borrow",
      "type": "event"
    },
    {
      "anonymous": false,
      "inputs": [
        {
          "indexed": true,
          "internalType": "uint256",
          "name": "index",
          "type": "uint256"
        },
        {
          "indexed": true,
          "internalType": "address",
          "name": "currency",
          "type": "address"
        },
        {
          "indexed": true,
          "internalType": "uint256",
          "name": "interestRate",
          "type": "uint256"
        }
      ],
      "name": "ListingCreated",
      "type": "event"
    },
    {
      "anonymous": false,
      "inputs": [
        {
          "indexed": true,
          "internalType": "uint256",
          "name": "index",
          "type": "uint256"
        },
        {
          "indexed": true,
          "internalType": "address",
          "name": "currency",
          "type": "address"
        }
      ],
      "name": "ListingRemoved",
      "type": "event"
    },
    {
      "anonymous": false,
      "inputs": [
        {
          "indexed": true,
          "internalType": "address",
          "name": "previousOwner",
          "type": "address"
        },
        {
          "indexed": true,
          "internalType": "address",
          "name": "newOwner",
          "type": "address"
        }
      ],
      "name": "OwnershipTransferred",
      "type": "event"
    },
    {
      "anonymous": false,
      "inputs": [
        {
          "indexed": true,
          "internalType": "uint256",
          "name": "index",
          "type": "uint256"
        },
        {
          "indexed": true,
          "internalType": "address",
          "name": "borrower",
          "type": "address"
        },
        {
          "indexed": true,
          "internalType": "address",
          "name": "currency",
          "type": "address"
        },
        {
          "indexed": false,
          "internalType": "uint256",
          "name": "amount",
          "type": "uint256"
        }
      ],
      "name": "Pay",
      "type": "event"
    },
    {
      "anonymous": false,
      "inputs": [
        {
          "indexed": true,
          "internalType": "address",
          "name": "withdrawer",
          "type": "address"
        },
        {
          "indexed": false,
          "internalType": "address",
          "name": "currency",
          "type": "address"
        },
        {
          "indexed": false,
          "internalType": "uint256",
          "name": "amount",
          "type": "uint256"
        }
      ],
      "name": "Withdraw",
      "type": "event"
    },
    {
      "inputs": [
        {
          "internalType": "uint256",
          "name": "amount",
          "type": "uint256"
        },
        {
          "internalType": "address",
          "name": "currency",
          "type": "address"
        },
        {
          "internalType": "uint256",
          "name": "index",
          "type": "uint256"
        }
      ],
      "name": "addLiquidity",
      "outputs": [],
      "stateMutability": "nonpayable",
      "type": "function"
    },
    {
      "inputs": [
        {
          "components": [
            {
              "internalType": "uint256",
              "name": "minAmount",
              "type": "uint256"
            },
            {
              "internalType": "uint256",
              "name": "maxAmount",
              "type": "uint256"
            },
            {
              "internalType": "uint256",
              "name": "maxDuration",
              "type": "uint256"
            },
            {
              "internalType": "uint256",
              "name": "interestRate",
              "type": "uint256"
            },
            {
              "internalType": "uint256",
              "name": "loanToValue",
              "type": "uint256"
            },
            {
              "internalType": "address",
              "name": "loanToValueTokenAddr",
              "type": "address"
            },
            {
              "internalType": "address",
              "name": "currency",
              "type": "address"
            }
          ],
          "internalType": "struct BorrowService.BorrowServiceListing",
          "name": "listing",
          "type": "tuple"
        }
      ],
      "name": "addListing",
      "outputs": [
        {
          "internalType": "uint256",
          "name": "index",
          "type": "uint256"
        }
      ],
      "stateMutability": "nonpayable",
      "type": "function"
    },
    {
      "inputs": [
        {
          "internalType": "uint256",
          "name": "amount",
          "type": "uint256"
        },
        {
          "internalType": "address",
          "name": "currency",
          "type": "address"
        },
        {
          "internalType": "uint256",
          "name": "index",
          "type": "uint256"
        },
        {
          "internalType": "uint256",
          "name": "duration",
          "type": "uint256"
        }
      ],
      "name": "borrow",
      "outputs": [],
      "stateMutability": "payable",
      "type": "function"
    },
    {
      "inputs": [
        {
          "internalType": "uint256",
          "name": "amount",
          "type": "uint256"
        }
      ],
      "name": "calculateAmountToLend",
      "outputs": [
        {
          "internalType": "uint256",
          "name": "",
          "type": "uint256"
        }
      ],
      "stateMutability": "view",
      "type": "function"
    },
    {
      "inputs": [],
      "name": "createIdentity",
      "outputs": [],
      "stateMutability": "nonpayable",
      "type": "function"
    },
    {
      "inputs": [
        {
          "internalType": "address",
          "name": "currency",
          "type": "address"
        },
        {
          "internalType": "uint256",
          "name": "index",
          "type": "uint256"
        }
      ],
      "name": "currentLiquidity",
      "outputs": [
        {
          "internalType": "uint256",
          "name": "liquidity",
          "type": "uint256"
        }
      ],
      "stateMutability": "view",
      "type": "function"
    },
    {
      "inputs": [],
      "name": "debtBalance",
      "outputs": [
        {
          "internalType": "uint256",
          "name": "",
          "type": "uint256"
        }
      ],
      "stateMutability": "view",
      "type": "function"
    },
    {
      "inputs": [],
      "name": "getLendBalance",
      "outputs": [
        {
          "internalType": "uint256",
          "name": "",
          "type": "uint256"
        }
      ],
      "stateMutability": "view",
      "type": "function"
    },
    {
      "inputs": [
        {
          "internalType": "address",
          "name": "currency",
          "type": "address"
        },
        {
          "internalType": "uint256",
          "name": "listingId",
          "type": "uint256"
        }
      ],
      "name": "getListing",
      "outputs": [
        {
          "components": [
            {
              "internalType": "uint256",
              "name": "minAmount",
              "type": "uint256"
            },
            {
              "internalType": "uint256",
              "name": "maxAmount",
              "type": "uint256"
            },
            {
              "internalType": "uint256",
              "name": "maxDuration",
              "type": "uint256"
            },
            {
              "internalType": "uint256",
              "name": "interestRate",
              "type": "uint256"
            },
            {
              "internalType": "uint256",
              "name": "loanToValue",
              "type": "uint256"
            },
            {
              "internalType": "address",
              "name": "loanToValueTokenAddr",
              "type": "address"
            },
            {
              "internalType": "address",
              "name": "currency",
              "type": "address"
            }
          ],
          "internalType": "struct BorrowService.BorrowServiceListing",
          "name": "listing",
          "type": "tuple"
        }
      ],
      "stateMutability": "view",
      "type": "function"
    },
    {
      "inputs": [
        {
          "internalType": "address",
          "name": "currency",
          "type": "address"
        }
      ],
      "name": "getListingsCount",
      "outputs": [
        {
          "internalType": "uint256",
          "name": "count",
          "type": "uint256"
        }
      ],
      "stateMutability": "view",
      "type": "function"
    },
    {
      "inputs": [
        {
          "internalType": "address",
          "name": "",
          "type": "address"
        },
        {
          "internalType": "uint256",
          "name": "",
          "type": "uint256"
        }
      ],
      "name": "listings",
      "outputs": [
        {
          "internalType": "uint256",
          "name": "minAmount",
          "type": "uint256"
        },
        {
          "internalType": "uint256",
          "name": "maxAmount",
          "type": "uint256"
        },
        {
          "internalType": "uint256",
          "name": "maxDuration",
          "type": "uint256"
        },
        {
          "internalType": "uint256",
          "name": "interestRate",
          "type": "uint256"
        },
        {
          "internalType": "uint256",
          "name": "loanToValue",
          "type": "uint256"
        },
        {
          "internalType": "address",
          "name": "loanToValueTokenAddr",
          "type": "address"
        },
        {
          "internalType": "address",
          "name": "currency",
          "type": "address"
        }
      ],
      "stateMutability": "view",
      "type": "function"
    },
    {
      "inputs": [],
      "name": "owner",
      "outputs": [
        {
          "internalType": "address",
          "name": "",
          "type": "address"
        }
      ],
      "stateMutability": "view",
      "type": "function"
    },
    {
      "inputs": [
        {
          "internalType": "uint256",
          "name": "amount",
          "type": "uint256"
        },
        {
          "internalType": "address",
          "name": "currency",
          "type": "address"
        },
        {
          "internalType": "uint256",
          "name": "index",
          "type": "uint256"
        }
      ],
      "name": "pay",
      "outputs": [],
      "stateMutability": "payable",
      "type": "function"
    },
    {
      "inputs": [
        {
          "internalType": "uint256",
          "name": "amount",
          "type": "uint256"
        },
        {
          "internalType": "address",
          "name": "currency",
          "type": "address"
        },
        {
          "internalType": "uint256",
          "name": "index",
          "type": "uint256"
        }
      ],
      "name": "removeLiquidity",
      "outputs": [],
      "stateMutability": "nonpayable",
      "type": "function"
    },
    {
      "inputs": [
        {
          "internalType": "uint256",
          "name": "index",
          "type": "uint256"
        },
        {
          "internalType": "address",
          "name": "currency",
          "type": "address"
        }
      ],
      "name": "removeListing",
      "outputs": [],
      "stateMutability": "nonpayable",
      "type": "function"
    },
    {
      "inputs": [],
      "name": "renounceOwnership",
      "outputs": [],
      "stateMutability": "nonpayable",
      "type": "function"
    },
    {
      "inputs": [],
      "name": "serviceType",
      "outputs": [
        {
          "internalType": "enum Service.ServiceType",
          "name": "",
          "type": "uint8"
        }
      ],
      "stateMutability": "view",
      "type": "function"
    },
    {
      "inputs": [
        {
          "internalType": "address",
          "name": "newOwner",
          "type": "address"
        }
      ],
      "name": "transferOwnership",
      "outputs": [],
      "stateMutability": "nonpayable",
      "type": "function"
    },
    {
      "inputs": [],
      "name": "withdraw",
      "outputs": [],
      "stateMutability": "nonpayable",
      "type": "function"
    }
  ],
  "bytecode": "0x60806040523480156200001157600080fd5b506040516200230438038062002304833981016040819052620000349162000147565b6200003f33620000cc565b600080546001919060ff60a01b1916600160a01b8302179055508051600380546001600160a01b03199081166001600160a01b03938416179091556020830151600480548316918416919091179055604083015160058054831691841691909117905560609092015160068054841691831691909117905560078054909216921691909117905562000207565b600080546001600160a01b038381166001600160a01b0319831681178455604051919092169283917f8be0079c531659141344cd1fd0a4f28419497f9722a3daafe3b4186f6b6457e09190a35050565b6001600160a01b03811681146200013257600080fd5b50565b805162000142816200011c565b919050565b60008082840360a08112156200015c57600080fd5b835162000169816200011c565b92506080601f19820112156200017e57600080fd5b50604051608081016001600160401b0381118282101715620001b057634e487b7160e01b600052604160045260246000fd5b604052620001c16020850162000135565b8152620001d16040850162000135565b6020820152620001e46060850162000135565b6040820152620001f76080850162000135565b6060820152809150509250929050565b6120ed80620002176000396000f3fe6080604052600436106101435760003560e01c80638327c214116100c0578063bf1eb64a11610074578063db0881a111610059578063db0881a11461041c578063f2fde38b1461045b578063f725252a1461047b57600080fd5b8063bf1eb64a146103e7578063c4ccdeea146103fc57600080fd5b80638d802ba5116100a55780638d802ba51461037f5780638da5cb5b1461039f5780639aa5d462146103c757600080fd5b80638327c214146102e757806388700d1c146102fa57600080fd5b80633ccfd60b116101175780635800bcef116100fc5780635800bcef146102a857806359d21ad9146102bd578063715018a6146102d257600080fd5b80633ccfd60b1461025d5780634069b8a21461027257600080fd5b806207df30146101485780630313766f146101fa5780631dd04c591461020f57806333de26071461023d575b600080fd5b34801561015457600080fd5b506101b4610163366004611b8f565b60016020818152600093845260408085209091529183529120805491810154600282015460038301546004840154600585015460069095015493949293919290916001600160a01b03918216911687565b60408051978852602088019690965294860193909352606085019190915260808401526001600160a01b0390811660a08401521660c082015260e0015b60405180910390f35b61020d610208366004611bbb565b6104c1565b005b34801561021b57600080fd5b5061022f61022a366004611c09565b6106c2565b6040519081526020016101f1565b34801561024957600080fd5b5061022f610258366004611c9c565b6107d0565b34801561026957600080fd5b5061020d610b2e565b34801561027e57600080fd5b5061022f61028d366004611cb5565b6001600160a01b031660009081526002602052604090205490565b3480156102b457600080fd5b5061022f610e73565b3480156102c957600080fd5b5061020d61109d565b3480156102de57600080fd5b5061020d611115565b61020d6102f5366004611cd9565b611129565b34801561030657600080fd5b5061031a610315366004611b8f565b6115c8565b6040516101f19190600060e082019050825182526020830151602083015260408301516040830152606083015160608301526080830151608083015260a08301516001600160a01b0380821660a08501528060c08601511660c0850152505092915050565b34801561038b57600080fd5b5061020d61039a366004611d16565b611698565b3480156103ab57600080fd5b506000546040516001600160a01b0390911681526020016101f1565b3480156103d357600080fd5b5061020d6103e2366004611bbb565b61183d565b3480156103f357600080fd5b5061022f611883565b34801561040857600080fd5b5061020d610417366004611bbb565b6119e7565b34801561042857600080fd5b5060005461044e9074010000000000000000000000000000000000000000900460ff1681565b6040516101f19190611d46565b34801561046757600080fd5b5061020d610476366004611cb5565b6119ff565b34801561048757600080fd5b5061022f610496366004611b8f565b6001600160a01b03919091166000908152600160208181526040808420948452939052919020015490565b600083116105165760405162461bcd60e51b815260206004820152601060248201527f4e6f6e207a65726f20626f72726f77730000000000000000000000000000000060448201526064015b60405180910390fd5b600754604051632fea7b8160e01b81523360048201526000916001600160a01b031690632fea7b8190602401602060405180830381865afa15801561055f573d6000803e3d6000fd5b505050506040513d601f19601f820116820180604052508101906105839190611d6e565b6006546040805160001960248083019190915282518083039091018152604490910182526020810180516001600160e01b03167f0e7527020000000000000000000000000000000000000000000000000000000017905290517fd26b117c0000000000000000000000000000000000000000000000000000000081529293506001600160a01b038085169363d26b117c9361062a939216919088908a908490600401611ddb565b6020604051808303816000875af1158015610649573d6000803e3d6000fd5b505050506040513d601f19601f8201168201806040525081019061066d9190611e32565b50826001600160a01b0316336001600160a01b0316837fece4e547ae0655a2613e99bed9e2f496b3b3dd8b0768cfbae0a6070b05782cea876040516106b491815260200190565b60405180910390a450505050565b60006106cc611a8f565b60c0820180516001600160a01b039081166000908152600160208181526040808420865186168552600280845282862054865290835281852089518155838a0151948101949094558189015184820155606089015160038501556080890151600485015560a089015160058501805491881673ffffffffffffffffffffffffffffffffffffffff199283161790559651600690940180549490961693909616831790945590825292909252812080549161078583611e63565b91905055905081606001518260c001516001600160a01b0316827f9adf89188ff96bbe0e772b6a9345d935a240c2bd656be8db63db0d091e92cb9d60405160405180910390a4919050565b600754604051632fea7b8160e01b815233600482015260009182916001600160a01b0390911690632fea7b8190602401602060405180830381865afa15801561081d573d6000803e3d6000fd5b505050506040513d601f19601f820116820180604052508101906108419190611d6e565b6004546005546040516001600160a01b0391821660248201529293506000928185169263d79f44eb92169060440160408051601f198184030181529181526020820180516001600160e01b031663fc57d4df60e01b1790525160e084901b6001600160e01b03191681526108b9929190600401611e7c565b600060405180830381865afa1580156108d6573d6000803e3d6000fd5b505050506040513d6000823e601f3d908101601f191682016040526108fe9190810190611e9e565b90506000818060200190518101906109169190611f4b565b6004546006546040516001600160a01b0391821660248201529293506000928682169263d79f44eb92169060440160408051601f198184030181529181526020820180516001600160e01b031663fc57d4df60e01b1790525160e084901b6001600160e01b031916815261098e929190600401611e7c565b600060405180830381865afa1580156109ab573d6000803e3d6000fd5b505050506040513d6000823e601f3d908101601f191682016040526109d39190810190611e9e565b90506000818060200190518101906109eb9190611f4b565b6003546005546040516001600160a01b0391821660248201529293506000928882169263d79f44eb92169060440160408051601f198184030181529181526020820180516001600160e01b03167f8e8f294b000000000000000000000000000000000000000000000000000000001790525160e084901b6001600160e01b0319168152610a7c929190600401611e7c565b600060405180830381865afa158015610a99573d6000803e3d6000fd5b505050506040513d6000823e601f3d908101601f19168201604052610ac19190810190611e9e565b9050600081806020019051810190610ad99190611f64565b509150610ae890508582611fa0565b83610afb8b674563918244f40000611fbf565b610b059190611fa0565b610b1790670de0b6b3a7640000611fa0565b610b219190611fd2565b9998505050505050505050565b600754604051632fea7b8160e01b81523360048201526000916001600160a01b031690632fea7b8190602401602060405180830381865afa158015610b77573d6000803e3d6000fd5b505050506040513d601f19601f82011682018060405250810190610b9b9190611d6e565b6005546040516001600160a01b03808416602483018190529394506000939263d79f44eb9291169060440160408051601f198184030181529181526020820180516001600160e01b03166370a0823160e01b1790525160e084901b6001600160e01b0319168152610c10929190600401611e7c565b600060405180830381865afa158015610c2d573d6000803e3d6000fd5b505050506040513d6000823e601f3d908101601f19168201604052610c559190810190611e9e565b9050600081806020019051810190610c6d9190611f4b565b60055460408051602480820185905282518083039091018152604490910182526020810180516001600160e01b03167fdb006a750000000000000000000000000000000000000000000000000000000017905290517f621091c20000000000000000000000000000000000000000000000000000000081529293506001600160a01b038681169363621091c293610d0a9392169190600401611e7c565b6020604051808303816000875af1158015610d29573d6000803e3d6000fd5b505050506040513d601f19601f82011682018060405250810190610d4d9190611e32565b506005546040805160048082526024820183526020820180516001600160e01b031663182df0f560e01b179052915163d79f44eb60e01b81526000936001600160a01b038089169463d79f44eb94610daa94939092169201611e7c565b600060405180830381865afa158015610dc7573d6000803e3d6000fd5b505050506040513d6000823e601f3d908101601f19168201604052610def9190810190611e9e565b9050600081806020019051810190610e079190611f4b565b9050337f9b1bfa7fa9ee420a16e124f794c35ac9f90472acc99140eb2f6447c714cad8eb6000670de0b6b3a7640000610e408588611fa0565b610e4a9190611fd2565b604080516001600160a01b03909316835260208301919091520160405180910390a25050505050565b600754604051632fea7b8160e01b815233600482015260009182916001600160a01b0390911690632fea7b8190602401602060405180830381865afa158015610ec0573d6000803e3d6000fd5b505050506040513d601f19601f82011682018060405250810190610ee49190611d6e565b6005546040805160048082526024820183526020820180516001600160e01b031663182df0f560e01b179052915163d79f44eb60e01b81529394506000936001600160a01b038087169463d79f44eb94610f45949190921692909101611e7c565b600060405180830381865afa158015610f62573d6000803e3d6000fd5b505050506040513d6000823e601f3d908101601f19168201604052610f8a9190810190611e9e565b9050600081806020019051810190610fa29190611f4b565b6005546040516001600160a01b03868116602483018190529394506000939263d79f44eb9291169060440160408051601f198184030181529181526020820180516001600160e01b03166370a0823160e01b1790525160e084901b6001600160e01b0319168152611017929190600401611e7c565b600060405180830381865afa158015611034573d6000803e3d6000fd5b505050506040513d6000823e601f3d908101601f1916820160405261105c9190810190611e9e565b90506000818060200190518101906110749190611f4b565b9050670de0b6b3a76400006110898285611fa0565b6110939190611fd2565b9550505050505090565b6007546040517f5b2ab06c0000000000000000000000000000000000000000000000000000000081523360048201526001600160a01b0390911690635b2ab06c90602401600060405180830381600087803b1580156110fb57600080fd5b505af115801561110f573d6000803e3d6000fd5b50505050565b61111d611a8f565b6111276000611ae9565b565b600084116111795760405162461bcd60e51b815260206004820152601060248201527f4e6f6e207a65726f20626f72726f777300000000000000000000000000000000604482015260640161050d565b600034116111c95760405162461bcd60e51b815260206004820152601360248201527f4e6f6e207a65726f20636f6c6c61746572616c00000000000000000000000000604482015260640161050d565b600754604051632fea7b8160e01b81523360048201526000916001600160a01b031690632fea7b8190602401602060405180830381865afa158015611212573d6000803e3d6000fd5b505050506040513d601f19601f820116820180604052508101906112369190611d6e565b90506000611243866107d0565b905080341015611288576040517f2565b3ee0000000000000000000000000000000000000000000000000000000081523460048201526024810182905260440161050d565b6005546040805160048082526024820183526020820180516001600160e01b03167f1249c58b0000000000000000000000000000000000000000000000000000000017905291517fc89acc860000000000000000000000000000000000000000000000000000000081526001600160a01b038087169463c89acc869434946113169492909316929101611e7c565b60206040518083038185885af1158015611334573d6000803e3d6000fd5b50505050506040513d601f19601f820116820180604052508101906113599190611e32565b50604080516002808252606082018352600092602083019080368337505060055482519293506001600160a01b03169183915060009061139b5761139b611ff4565b6001600160a01b0392831660209182029290920101526006548251911690829060019081106113cc576113cc611ff4565b6001600160a01b0392831660209182029290920101526003546040518583169263c89acc8692169061140290859060240161200a565b60408051601f198184030181529181526020820180516001600160e01b03167fc2998238000000000000000000000000000000000000000000000000000000001790525160e084901b6001600160e01b0319168152611465929190600401611e7c565b6020604051808303816000875af1158015611484573d6000803e3d6000fd5b505050506040513d601f19601f820116820180604052508101906114a89190611e32565b50600654604051602481018990526001600160a01b0385811692638058f4789291169060440160408051601f198184030181529181526020820180516001600160e01b03167fc5ebeaec000000000000000000000000000000000000000000000000000000001790525160e084901b6001600160e01b03191681526115339291908b90600401612057565b6020604051808303816000875af1158015611552573d6000803e3d6000fd5b505050506040513d601f19601f820116820180604052508101906115769190611e32565b5060408051888152602081018690526001600160a01b03881691339188917fef18174796a5d2f91d51dc5e907a4d7867bbd6e800f6225168e0453d581d0dcd910160405180910390a450505050505050565b61161a6040518060e00160405280600081526020016000815260200160008152602001600081526020016000815260200160006001600160a01b0316815260200160006001600160a01b031681525090565b506001600160a01b038083166000908152600160208181526040808420868552825292839020835160e08101855281548152928101549183019190915260028101549282019290925260038201546060820152600482015460808201526005820154831660a082015260069091015490911660c08201525b92915050565b6116a0611a8f565b6001600160a01b038116600090815260026020526040812054906116c5846001611fbf565b90505b81811015611778576001600160a01b0383811660009081526001602081815260408084208685529091528083208884529220825481558282015491810191909155600280830154908201556003808301549082015560048083015490820155600580830154908201805491851673ffffffffffffffffffffffffffffffffffffffff199283161790556006928301549290910180549290931691161790558061177081611e63565b9150506116c8565b506001600160a01b038216600081815260016020818152604080842086855282528084208481559283018490556002808401859055600384018590556004840185905560058401805473ffffffffffffffffffffffffffffffffffffffff1990811690915560069094018054909416909355938352529081208054916117fd8361208d565b90915550506040516001600160a01b0383169084907f58b0852506006c4be6c7ae72afcd195d9e64d7f5d8947905e914b778e47b7cf390600090a3505050565b611845611a8f565b6001600160a01b03821660009081526001602081815260408084208585529091528220018054859290611879908490611fbf565b9091555050505050565b600754604051632fea7b8160e01b815233600482015260009182916001600160a01b0390911690632fea7b8190602401602060405180830381865afa1580156118d0573d6000803e3d6000fd5b505050506040513d601f19601f820116820180604052508101906118f49190611d6e565b6006546040516001600160a01b03808416602483018190529394506000939263d79f44eb9291169060440160408051601f198184030181529181526020820180516001600160e01b03167f95dd9193000000000000000000000000000000000000000000000000000000001790525160e084901b6001600160e01b0319168152611982929190600401611e7c565b600060405180830381865afa15801561199f573d6000803e3d6000fd5b505050506040513d6000823e601f3d908101601f191682016040526119c79190810190611e9e565b90506000818060200190518101906119df9190611f4b565b949350505050565b6119ef611a8f565b6119fa838383611b46565b505050565b611a07611a8f565b6001600160a01b038116611a835760405162461bcd60e51b815260206004820152602660248201527f4f776e61626c653a206e6577206f776e657220697320746865207a65726f206160448201527f6464726573730000000000000000000000000000000000000000000000000000606482015260840161050d565b611a8c81611ae9565b50565b6000546001600160a01b031633146111275760405162461bcd60e51b815260206004820181905260248201527f4f776e61626c653a2063616c6c6572206973206e6f7420746865206f776e6572604482015260640161050d565b600080546001600160a01b0383811673ffffffffffffffffffffffffffffffffffffffff19831681178455604051919092169283917f8be0079c531659141344cd1fd0a4f28419497f9722a3daafe3b4186f6b6457e09190a35050565b6001600160a01b038216600090815260016020818152604080842085855290915282200180548592906118799084906120a4565b6001600160a01b0381168114611a8c57600080fd5b60008060408385031215611ba257600080fd5b8235611bad81611b7a565b946020939093013593505050565b600080600060608486031215611bd057600080fd5b833592506020840135611be281611b7a565b929592945050506040919091013590565b634e487b7160e01b600052604160045260246000fd5b600060e08284031215611c1b57600080fd5b60405160e0810181811067ffffffffffffffff82111715611c3e57611c3e611bf3565b8060405250823581526020830135602082015260408301356040820152606083013560608201526080830135608082015260a0830135611c7d81611b7a565b60a082015260c0830135611c9081611b7a565b60c08201529392505050565b600060208284031215611cae57600080fd5b5035919050565b600060208284031215611cc757600080fd5b8135611cd281611b7a565b9392505050565b60008060008060808587031215611cef57600080fd5b843593506020850135611d0181611b7a565b93969395505050506040820135916060013590565b60008060408385031215611d2957600080fd5b823591506020830135611d3b81611b7a565b809150509250929050565b6020810160028310611d6857634e487b7160e01b600052602160045260246000fd5b91905290565b600060208284031215611d8057600080fd5b8151611cd281611b7a565b60005b83811015611da6578181015183820152602001611d8e565b50506000910152565b60008151808452611dc7816020860160208601611d8b565b601f01601f19169290920160200192915050565b60006001600160a01b03808816835260a06020840152611dfe60a0840188611daf565b9581166040840152606083019490945250911660809091015292915050565b80518015158114611e2d57600080fd5b919050565b600060208284031215611e4457600080fd5b611cd282611e1d565b634e487b7160e01b600052601160045260246000fd5b600060018201611e7557611e75611e4d565b5060010190565b6001600160a01b03831681526040602082015260006119df6040830184611daf565b600060208284031215611eb057600080fd5b815167ffffffffffffffff80821115611ec857600080fd5b818401915084601f830112611edc57600080fd5b815181811115611eee57611eee611bf3565b604051601f8201601f19908116603f01168101908382118183101715611f1657611f16611bf3565b81604052828152876020848701011115611f2f57600080fd5b611f40836020830160208801611d8b565b979650505050505050565b600060208284031215611f5d57600080fd5b5051919050565b600080600060608486031215611f7957600080fd5b611f8284611e1d565b925060208401519150611f9760408501611e1d565b90509250925092565b6000816000190483118215151615611fba57611fba611e4d565b500290565b8082018082111561169257611692611e4d565b600082611fef57634e487b7160e01b600052601260045260246000fd5b500490565b634e487b7160e01b600052603260045260246000fd5b6020808252825182820181905260009190848201906040850190845b8181101561204b5783516001600160a01b031683529284019291840191600101612026565b50909695505050505050565b60006001600160a01b0380861683526060602084015261207a6060840186611daf565b9150808416604084015250949350505050565b60008161209c5761209c611e4d565b506000190190565b8181038181111561169257611692611e4d56fea2646970667358221220a4a95a869818d81823e2bdf6aae263e6bc2659dbc5f5738954837874a83f683264736f6c63430008100033",
  "linkReferences": {},
  "deployedLinkReferences": {}
}