{
  "_format": "hh-sol-artifact-1",
  "contractName": "TropykusLendingService",
  "sourceName": "contracts/tropykus/TropykusLendingService.sol",
  "abi": [
    {
      "inputs": [
        {
          "internalType": "address",
          "name": "crbtc",
          "type": "address"
        },
        {
          "internalType": "contract UserIdentityFactory",
          "name": "userIdentityFactory",
          "type": "address"
        }
      ],
      "stateMutability": "nonpayable",
      "type": "constructor"
    },
    {
      "inputs": [
        {
          "internalType": "uint256",
          "name": "amount",
          "type": "uint256"
        }
      ],
      "name": "InvalidAmount",
      "type": "error"
    },
    {
      "anonymous": false,
      "inputs": [
        {
          "indexed": true,
          "internalType": "uint256",
          "name": "listingId",
          "type": "uint256"
        },
        {
          "indexed": true,
          "internalType": "address",
          "name": "borrower",
          "type": "address"
        },
        {
          "indexed": true,
          "internalType": "address",
          "name": "currency",
          "type": "address"
        },
        {
          "indexed": false,
          "internalType": "uint256",
          "name": "amount",
          "type": "uint256"
        },
        {
          "indexed": false,
          "internalType": "uint256",
          "name": "duration",
          "type": "uint256"
        }
      ],
      "name": "Borrow",
      "type": "event"
    },
    {
      "anonymous": false,
      "inputs": [
        {
          "indexed": true,
          "internalType": "uint256",
          "name": "listingId",
          "type": "uint256"
        },
        {
          "indexed": true,
          "internalType": "address",
          "name": "lender",
          "type": "address"
        },
        {
          "indexed": true,
          "internalType": "address",
          "name": "currency",
          "type": "address"
        },
        {
          "indexed": false,
          "internalType": "uint256",
          "name": "amount",
          "type": "uint256"
        }
      ],
      "name": "Lend",
      "type": "event"
    },
    {
      "anonymous": false,
      "inputs": [
        {
          "indexed": true,
          "internalType": "address",
          "name": "currency",
          "type": "address"
        },
        {
          "indexed": true,
          "internalType": "uint256",
          "name": "listingId",
          "type": "uint256"
        }
      ],
      "name": "ListingCreated",
      "type": "event"
    },
    {
      "anonymous": false,
      "inputs": [
        {
          "indexed": true,
          "internalType": "address",
          "name": "previousOwner",
          "type": "address"
        },
        {
          "indexed": true,
          "internalType": "address",
          "name": "newOwner",
          "type": "address"
        }
      ],
      "name": "OwnershipTransferred",
      "type": "event"
    },
    {
      "anonymous": false,
      "inputs": [
        {
          "indexed": true,
          "internalType": "uint256",
          "name": "listingId",
          "type": "uint256"
        },
        {
          "indexed": true,
          "internalType": "address",
          "name": "borrower",
          "type": "address"
        },
        {
          "indexed": true,
          "internalType": "address",
          "name": "currency",
          "type": "address"
        },
        {
          "indexed": false,
          "internalType": "uint256",
          "name": "amount",
          "type": "uint256"
        }
      ],
      "name": "Pay",
      "type": "event"
    },
    {
      "anonymous": false,
      "inputs": [
        {
          "indexed": true,
          "internalType": "uint256",
          "name": "listingId",
          "type": "uint256"
        },
        {
          "indexed": true,
          "internalType": "address",
          "name": "withdrawer",
          "type": "address"
        },
        {
          "indexed": true,
          "internalType": "address",
          "name": "currency",
          "type": "address"
        },
        {
          "indexed": false,
          "internalType": "uint256",
          "name": "amount",
          "type": "uint256"
        }
      ],
      "name": "Withdraw",
      "type": "event"
    },
    {
      "inputs": [
        {
          "components": [
            {
              "internalType": "uint256",
              "name": "id",
              "type": "uint256"
            },
            {
              "internalType": "uint256",
              "name": "minAmount",
              "type": "uint256"
            },
            {
              "internalType": "uint256",
              "name": "maxAmount",
              "type": "uint256"
            },
            {
              "internalType": "uint256",
              "name": "minDuration",
              "type": "uint256"
            },
            {
              "internalType": "uint256",
              "name": "maxDuration",
              "type": "uint256"
            },
            {
              "internalType": "uint256",
              "name": "interestRate",
              "type": "uint256"
            },
            {
              "internalType": "uint256",
              "name": "loanToValue",
              "type": "uint256"
            },
            {
              "internalType": "address",
              "name": "loanToValueTokenAddr",
              "type": "address"
            },
            {
              "internalType": "address",
              "name": "currency",
              "type": "address"
            },
            {
              "internalType": "enum PayBackOption",
              "name": "payBackOption",
              "type": "uint8"
            },
            {
              "internalType": "bool",
              "name": "enabled",
              "type": "bool"
            },
            {
              "internalType": "string",
              "name": "name",
              "type": "string"
            }
          ],
          "internalType": "struct ServiceListing",
          "name": "listing",
          "type": "tuple"
        }
      ],
      "name": "addListing",
      "outputs": [
        {
          "internalType": "uint256",
          "name": "",
          "type": "uint256"
        }
      ],
      "stateMutability": "nonpayable",
      "type": "function"
    },
    {
      "inputs": [
        {
          "internalType": "uint256",
          "name": "listingId",
          "type": "uint256"
        }
      ],
      "name": "disableListing",
      "outputs": [],
      "stateMutability": "nonpayable",
      "type": "function"
    },
    {
      "inputs": [
        {
          "internalType": "address",
          "name": "currency",
          "type": "address"
        }
      ],
      "name": "getBalance",
      "outputs": [
        {
          "internalType": "uint256",
          "name": "",
          "type": "uint256"
        }
      ],
      "stateMutability": "view",
      "type": "function"
    },
    {
      "inputs": [
        {
          "internalType": "uint256",
          "name": "listingId",
          "type": "uint256"
        }
      ],
      "name": "getListing",
      "outputs": [
        {
          "components": [
            {
              "internalType": "uint256",
              "name": "id",
              "type": "uint256"
            },
            {
              "internalType": "uint256",
              "name": "minAmount",
              "type": "uint256"
            },
            {
              "internalType": "uint256",
              "name": "maxAmount",
              "type": "uint256"
            },
            {
              "internalType": "uint256",
              "name": "minDuration",
              "type": "uint256"
            },
            {
              "internalType": "uint256",
              "name": "maxDuration",
              "type": "uint256"
            },
            {
              "internalType": "uint256",
              "name": "interestRate",
              "type": "uint256"
            },
            {
              "internalType": "uint256",
              "name": "loanToValue",
              "type": "uint256"
            },
            {
              "internalType": "address",
              "name": "loanToValueTokenAddr",
              "type": "address"
            },
            {
              "internalType": "address",
              "name": "currency",
              "type": "address"
            },
            {
              "internalType": "enum PayBackOption",
              "name": "payBackOption",
              "type": "uint8"
            },
            {
              "internalType": "bool",
              "name": "enabled",
              "type": "bool"
            },
            {
              "internalType": "string",
              "name": "name",
              "type": "string"
            }
          ],
          "internalType": "struct ServiceListing",
          "name": "",
          "type": "tuple"
        }
      ],
      "stateMutability": "view",
      "type": "function"
    },
    {
      "inputs": [],
      "name": "getListingsCount",
      "outputs": [
        {
          "internalType": "uint256",
          "name": "",
          "type": "uint256"
        }
      ],
      "stateMutability": "view",
      "type": "function"
    },
    {
      "inputs": [],
      "name": "lend",
      "outputs": [],
      "stateMutability": "payable",
      "type": "function"
    },
    {
      "inputs": [
        {
          "internalType": "uint256",
          "name": "",
          "type": "uint256"
        }
      ],
      "name": "listings",
      "outputs": [
        {
          "internalType": "uint256",
          "name": "id",
          "type": "uint256"
        },
        {
          "internalType": "uint256",
          "name": "minAmount",
          "type": "uint256"
        },
        {
          "internalType": "uint256",
          "name": "maxAmount",
          "type": "uint256"
        },
        {
          "internalType": "uint256",
          "name": "minDuration",
          "type": "uint256"
        },
        {
          "internalType": "uint256",
          "name": "maxDuration",
          "type": "uint256"
        },
        {
          "internalType": "uint256",
          "name": "interestRate",
          "type": "uint256"
        },
        {
          "internalType": "uint256",
          "name": "loanToValue",
          "type": "uint256"
        },
        {
          "internalType": "address",
          "name": "loanToValueTokenAddr",
          "type": "address"
        },
        {
          "internalType": "address",
          "name": "currency",
          "type": "address"
        },
        {
          "internalType": "enum PayBackOption",
          "name": "payBackOption",
          "type": "uint8"
        },
        {
          "internalType": "bool",
          "name": "enabled",
          "type": "bool"
        },
        {
          "internalType": "string",
          "name": "name",
          "type": "string"
        }
      ],
      "stateMutability": "view",
      "type": "function"
    },
    {
      "inputs": [],
      "name": "owner",
      "outputs": [
        {
          "internalType": "address",
          "name": "",
          "type": "address"
        }
      ],
      "stateMutability": "view",
      "type": "function"
    },
    {
      "inputs": [],
      "name": "renounceOwnership",
      "outputs": [],
      "stateMutability": "nonpayable",
      "type": "function"
    },
    {
      "inputs": [],
      "name": "serviceProviderName",
      "outputs": [
        {
          "internalType": "string",
          "name": "",
          "type": "string"
        }
      ],
      "stateMutability": "view",
      "type": "function"
    },
    {
      "inputs": [],
      "name": "serviceType",
      "outputs": [
        {
          "internalType": "enum ServiceType",
          "name": "",
          "type": "uint8"
        }
      ],
      "stateMutability": "view",
      "type": "function"
    },
    {
      "inputs": [
        {
          "internalType": "address",
          "name": "newOwner",
          "type": "address"
        }
      ],
      "name": "transferOwnership",
      "outputs": [],
      "stateMutability": "nonpayable",
      "type": "function"
    },
    {
      "inputs": [
        {
          "components": [
            {
              "internalType": "uint256",
              "name": "id",
              "type": "uint256"
            },
            {
              "internalType": "uint256",
              "name": "minAmount",
              "type": "uint256"
            },
            {
              "internalType": "uint256",
              "name": "maxAmount",
              "type": "uint256"
            },
            {
              "internalType": "uint256",
              "name": "minDuration",
              "type": "uint256"
            },
            {
              "internalType": "uint256",
              "name": "maxDuration",
              "type": "uint256"
            },
            {
              "internalType": "uint256",
              "name": "interestRate",
              "type": "uint256"
            },
            {
              "internalType": "uint256",
              "name": "loanToValue",
              "type": "uint256"
            },
            {
              "internalType": "address",
              "name": "loanToValueTokenAddr",
              "type": "address"
            },
            {
              "internalType": "address",
              "name": "currency",
              "type": "address"
            },
            {
              "internalType": "enum PayBackOption",
              "name": "payBackOption",
              "type": "uint8"
            },
            {
              "internalType": "bool",
              "name": "enabled",
              "type": "bool"
            },
            {
              "internalType": "string",
              "name": "name",
              "type": "string"
            }
          ],
          "internalType": "struct ServiceListing",
          "name": "listing",
          "type": "tuple"
        }
      ],
      "name": "updateListing",
      "outputs": [],
      "stateMutability": "nonpayable",
      "type": "function"
    },
    {
      "inputs": [],
      "name": "withdraw",
      "outputs": [],
      "stateMutability": "nonpayable",
      "type": "function"
    }
  ],
  "bytecode": "0x60806040523480156200001157600080fd5b5060405162002c2238038062002c228339818101604052810190620000379190620002c0565b6040518060400160405280600881526020017f54726f70796b75730000000000000000000000000000000000000000000000008152506200008d620000816200014560201b60201c565b6200014d60201b60201c565b60008060146101000a81548160ff02191690836001811115620000b557620000b462000307565b5b02179055505081600460006101000a81548173ffffffffffffffffffffffffffffffffffffffff021916908373ffffffffffffffffffffffffffffffffffffffff16021790555080600560006101000a81548173ffffffffffffffffffffffffffffffffffffffff021916908373ffffffffffffffffffffffffffffffffffffffff160217905550505062000336565b600033905090565b60008060009054906101000a900473ffffffffffffffffffffffffffffffffffffffff169050816000806101000a81548173ffffffffffffffffffffffffffffffffffffffff021916908373ffffffffffffffffffffffffffffffffffffffff1602179055508173ffffffffffffffffffffffffffffffffffffffff168173ffffffffffffffffffffffffffffffffffffffff167f8be0079c531659141344cd1fd0a4f28419497f9722a3daafe3b4186f6b6457e060405160405180910390a35050565b600080fd5b600073ffffffffffffffffffffffffffffffffffffffff82169050919050565b6000620002438262000216565b9050919050565b620002558162000236565b81146200026157600080fd5b50565b60008151905062000275816200024a565b92915050565b6000620002888262000236565b9050919050565b6200029a816200027b565b8114620002a657600080fd5b50565b600081519050620002ba816200028f565b92915050565b60008060408385031215620002da57620002d962000211565b5b6000620002ea8582860162000264565b9250506020620002fd85828601620002a9565b9150509250929050565b7f4e487b7100000000000000000000000000000000000000000000000000000000600052602160045260246000fd5b6128dc80620003466000396000f3fe6080604052600436106100dd5760003560e01c8063c84216a21161007f578063dc419a0911610059578063dc419a0914610255578063de74e57b14610292578063f2fde38b146102da578063f8b2cb4f14610303576100dd565b8063c84216a2146101d4578063cbaa068f146101ff578063db0881a11461022a576100dd565b80635c3fec1e116100bb5780635c3fec1e1461015f578063715018a6146101885780638da5cb5b1461019f57806397dffc61146101ca576100dd565b8063107a274a146100e25780633ccfd60b1461011f5780634085aaac14610136575b600080fd5b3480156100ee57600080fd5b50610109600480360381019061010491906118f2565b610340565b6040516101169190611b95565b60405180910390f35b34801561012b57600080fd5b50610134610548565b005b34801561014257600080fd5b5061015d60048036038101906101589190611eb1565b610a30565b005b34801561016b57600080fd5b50610186600480360381019061018191906118f2565b610b94565b005b34801561019457600080fd5b5061019d610bce565b005b3480156101ab57600080fd5b506101b4610be2565b6040516101c19190611f09565b60405180910390f35b6101d2610c0b565b005b3480156101e057600080fd5b506101e9610f1e565b6040516101f69190611f6e565b60405180910390f35b34801561020b57600080fd5b50610214610fac565b6040516102219190611f9f565b60405180910390f35b34801561023657600080fd5b5061023f610fb6565b60405161024c9190612002565b60405180910390f35b34801561026157600080fd5b5061027c60048036038101906102779190611eb1565b610fc9565b6040516102899190611f9f565b60405180910390f35b34801561029e57600080fd5b506102b960048036038101906102b491906118f2565b61119f565b6040516102d19c9b9a9998979695949392919061203b565b60405180910390f35b3480156102e657600080fd5b5061030160048036038101906102fc91906120fc565b6112e1565b005b34801561030f57600080fd5b5061032a600480360381019061032591906120fc565b611364565b6040516103379190611f9f565b60405180910390f35b610348611807565b6002600083815260200190815260200160002060405180610180016040529081600082015481526020016001820154815260200160028201548152602001600382015481526020016004820154815260200160058201548152602001600682015481526020016007820160009054906101000a900473ffffffffffffffffffffffffffffffffffffffff1673ffffffffffffffffffffffffffffffffffffffff1673ffffffffffffffffffffffffffffffffffffffff1681526020016008820160009054906101000a900473ffffffffffffffffffffffffffffffffffffffff1673ffffffffffffffffffffffffffffffffffffffff1673ffffffffffffffffffffffffffffffffffffffff1681526020016008820160149054906101000a900460ff16600381111561047e5761047d61196f565b5b60038111156104905761048f61196f565b5b81526020016008820160159054906101000a900460ff161515151581526020016009820180546104bf90612158565b80601f01602080910402602001604051908101604052809291908181526020018280546104eb90612158565b80156105385780601f1061050d57610100808354040283529160200191610538565b820191906000526020600020905b81548152906001019060200180831161051b57829003601f168201915b5050505050815250509050919050565b6000600560009054906101000a900473ffffffffffffffffffffffffffffffffffffffff1673ffffffffffffffffffffffffffffffffffffffff16632fea7b81336040518263ffffffff1660e01b81526004016105a59190611f09565b602060405180830381865afa1580156105c2573d6000803e3d6000fd5b505050506040513d601f19601f820116820180604052508101906105e691906121d9565b905060008173ffffffffffffffffffffffffffffffffffffffff1663d79f44eb600460009054906101000a900473ffffffffffffffffffffffffffffffffffffffff168460405160240161063a9190611f09565b6040516020818303038152906040527f70a08231000000000000000000000000000000000000000000000000000000007bffffffffffffffffffffffffffffffffffffffffffffffffffffffff19166020820180517bffffffffffffffffffffffffffffffffffffffffffffffffffffffff83818316178352505050506040518363ffffffff1660e01b81526004016106d492919061225b565b600060405180830381865afa1580156106f1573d6000803e3d6000fd5b505050506040513d6000823e3d601f19601f8201168201806040525081019061071a919061232c565b9050600081806020019051810190610732919061238a565b90508273ffffffffffffffffffffffffffffffffffffffff1663621091c2600460009054906101000a900473ffffffffffffffffffffffffffffffffffffffff16836040516024016107849190611f9f565b6040516020818303038152906040527fdb006a75000000000000000000000000000000000000000000000000000000007bffffffffffffffffffffffffffffffffffffffffffffffffffffffff19166020820180517bffffffffffffffffffffffffffffffffffffffffffffffffffffffff83818316178352505050506040518363ffffffff1660e01b815260040161081e92919061225b565b6020604051808303816000875af115801561083d573d6000803e3d6000fd5b505050506040513d601f19601f8201168201806040525081019061086191906123cc565b5060008373ffffffffffffffffffffffffffffffffffffffff1663d79f44eb600460009054906101000a900473ffffffffffffffffffffffffffffffffffffffff166040516024016040516020818303038152906040527f182df0f5000000000000000000000000000000000000000000000000000000007bffffffffffffffffffffffffffffffffffffffffffffffffffffffff19166020820180517bffffffffffffffffffffffffffffffffffffffffffffffffffffffff83818316178352505050506040518363ffffffff1660e01b815260040161094392919061225b565b600060405180830381865afa158015610960573d6000803e3d6000fd5b505050506040513d6000823e3d601f19601f82011682018060405250810190610989919061232c565b90506000818060200190518101906109a1919061238a565b9050600073ffffffffffffffffffffffffffffffffffffffff163373ffffffffffffffffffffffffffffffffffffffff1660007ffeb2000dca3e617cd6f3a8bbb63014bb54a124aac6ccbf73ee7229b4cd01f120670de0b6b3a76400008588610a0a9190612428565b610a1491906124b1565b604051610a219190611f9f565b60405180910390a45050505050565b610a386116bd565b806002600083600001518152602001908152602001600020600082015181600001556020820151816001015560408201518160020155606082015181600301556080820151816004015560a0820151816005015560c0820151816006015560e08201518160070160006101000a81548173ffffffffffffffffffffffffffffffffffffffff021916908373ffffffffffffffffffffffffffffffffffffffff1602179055506101008201518160080160006101000a81548173ffffffffffffffffffffffffffffffffffffffff021916908373ffffffffffffffffffffffffffffffffffffffff1602179055506101208201518160080160146101000a81548160ff02191690836003811115610b5157610b5061196f565b5b02179055506101408201518160080160156101000a81548160ff021916908315150217905550610160820151816009019081610b8d919061268e565b5090505050565b610b9c6116bd565b60006002600083815260200190815260200160002060080160156101000a81548160ff02191690831515021790555050565b610bd66116bd565b610be0600061173b565b565b60008060009054906101000a900473ffffffffffffffffffffffffffffffffffffffff16905090565b60003403610c5057346040517f3728b83d000000000000000000000000000000000000000000000000000000008152600401610c479190611f9f565b60405180910390fd5b600560009054906101000a900473ffffffffffffffffffffffffffffffffffffffff1673ffffffffffffffffffffffffffffffffffffffff16635b2ab06c336040518263ffffffff1660e01b8152600401610cab9190611f09565b6020604051808303816000875af1158015610cca573d6000803e3d6000fd5b505050506040513d601f19601f82011682018060405250810190610cee91906121d9565b506000600560009054906101000a900473ffffffffffffffffffffffffffffffffffffffff1673ffffffffffffffffffffffffffffffffffffffff16632fea7b81336040518263ffffffff1660e01b8152600401610d4c9190611f09565b602060405180830381865afa158015610d69573d6000803e3d6000fd5b505050506040513d601f19601f82011682018060405250810190610d8d91906121d9565b90508073ffffffffffffffffffffffffffffffffffffffff1663c89acc8634600460009054906101000a900473ffffffffffffffffffffffffffffffffffffffff166040516024016040516020818303038152906040527f1249c58b000000000000000000000000000000000000000000000000000000007bffffffffffffffffffffffffffffffffffffffffffffffffffffffff19166020820180517bffffffffffffffffffffffffffffffffffffffffffffffffffffffff83818316178352505050506040518463ffffffff1660e01b8152600401610e6f92919061225b565b60206040518083038185885af1158015610e8d573d6000803e3d6000fd5b50505050506040513d601f19601f82011682018060405250810190610eb291906123cc565b50600073ffffffffffffffffffffffffffffffffffffffff163373ffffffffffffffffffffffffffffffffffffffff1660007f77c494147cc26c9ccb1f3f1926fb5bffa128633d935fdf7147dff0da6f740db434604051610f139190611f9f565b60405180910390a450565b60018054610f2b90612158565b80601f0160208091040260200160405190810160405280929190818152602001828054610f5790612158565b8015610fa45780601f10610f7957610100808354040283529160200191610fa4565b820191906000526020600020905b815481529060010190602001808311610f8757829003601f168201915b505050505081565b6000600354905090565b600060149054906101000a900460ff1681565b6000610fd36116bd565b600060036000815480929190610fe890612760565b919050559050808360000181815250508260026000838152602001908152602001600020600082015181600001556020820151816001015560408201518160020155606082015181600301556080820151816004015560a0820151816005015560c0820151816006015560e08201518160070160006101000a81548173ffffffffffffffffffffffffffffffffffffffff021916908373ffffffffffffffffffffffffffffffffffffffff1602179055506101008201518160080160006101000a81548173ffffffffffffffffffffffffffffffffffffffff021916908373ffffffffffffffffffffffffffffffffffffffff1602179055506101208201518160080160146101000a81548160ff0219169083600381111561110d5761110c61196f565b5b02179055506101408201518160080160156101000a81548160ff021916908315150217905550610160820151816009019081611149919061268e565b509050508083610100015173ffffffffffffffffffffffffffffffffffffffff167ff060b874355dd22d0bc251d61fca3b6d902778149a3048748276c9ee78ead56c60405160405180910390a380915050919050565b60026020528060005260406000206000915090508060000154908060010154908060020154908060030154908060040154908060050154908060060154908060070160009054906101000a900473ffffffffffffffffffffffffffffffffffffffff16908060080160009054906101000a900473ffffffffffffffffffffffffffffffffffffffff16908060080160149054906101000a900460ff16908060080160159054906101000a900460ff169080600901805461125e90612158565b80601f016020809104026020016040519081016040528092919081815260200182805461128a90612158565b80156112d75780601f106112ac576101008083540402835291602001916112d7565b820191906000526020600020905b8154815290600101906020018083116112ba57829003601f168201915b505050505090508c565b6112e96116bd565b600073ffffffffffffffffffffffffffffffffffffffff168173ffffffffffffffffffffffffffffffffffffffff1603611358576040517f08c379a000000000000000000000000000000000000000000000000000000000815260040161134f9061281a565b60405180910390fd5b6113618161173b565b50565b600080600560009054906101000a900473ffffffffffffffffffffffffffffffffffffffff1673ffffffffffffffffffffffffffffffffffffffff16632fea7b81336040518263ffffffff1660e01b81526004016113c29190611f09565b602060405180830381865afa1580156113df573d6000803e3d6000fd5b505050506040513d601f19601f8201168201806040525081019061140391906121d9565b905060008173ffffffffffffffffffffffffffffffffffffffff1663d79f44eb600460009054906101000a900473ffffffffffffffffffffffffffffffffffffffff166040516024016040516020818303038152906040527f182df0f5000000000000000000000000000000000000000000000000000000007bffffffffffffffffffffffffffffffffffffffffffffffffffffffff19166020820180517bffffffffffffffffffffffffffffffffffffffffffffffffffffffff83818316178352505050506040518363ffffffff1660e01b81526004016114e692919061225b565b600060405180830381865afa158015611503573d6000803e3d6000fd5b505050506040513d6000823e3d601f19601f8201168201806040525081019061152c919061232c565b9050600081806020019051810190611544919061238a565b905060008373ffffffffffffffffffffffffffffffffffffffff1663d79f44eb600460009054906101000a900473ffffffffffffffffffffffffffffffffffffffff16866040516024016115989190611f09565b6040516020818303038152906040527f70a08231000000000000000000000000000000000000000000000000000000007bffffffffffffffffffffffffffffffffffffffffffffffffffffffff19166020820180517bffffffffffffffffffffffffffffffffffffffffffffffffffffffff83818316178352505050506040518363ffffffff1660e01b815260040161163292919061225b565b600060405180830381865afa15801561164f573d6000803e3d6000fd5b505050506040513d6000823e3d601f19601f82011682018060405250810190611678919061232c565b9050600081806020019051810190611690919061238a565b9050670de0b6b3a764000081846116a79190612428565b6116b191906124b1565b95505050505050919050565b6116c56117ff565b73ffffffffffffffffffffffffffffffffffffffff166116e3610be2565b73ffffffffffffffffffffffffffffffffffffffff1614611739576040517f08c379a000000000000000000000000000000000000000000000000000000000815260040161173090612886565b60405180910390fd5b565b60008060009054906101000a900473ffffffffffffffffffffffffffffffffffffffff169050816000806101000a81548173ffffffffffffffffffffffffffffffffffffffff021916908373ffffffffffffffffffffffffffffffffffffffff1602179055508173ffffffffffffffffffffffffffffffffffffffff168173ffffffffffffffffffffffffffffffffffffffff167f8be0079c531659141344cd1fd0a4f28419497f9722a3daafe3b4186f6b6457e060405160405180910390a35050565b600033905090565b60405180610180016040528060008152602001600081526020016000815260200160008152602001600081526020016000815260200160008152602001600073ffffffffffffffffffffffffffffffffffffffff168152602001600073ffffffffffffffffffffffffffffffffffffffff168152602001600060038111156118925761189161196f565b5b8152602001600015158152602001606081525090565b6000604051905090565b600080fd5b600080fd5b6000819050919050565b6118cf816118bc565b81146118da57600080fd5b50565b6000813590506118ec816118c6565b92915050565b600060208284031215611908576119076118b2565b5b6000611916848285016118dd565b91505092915050565b611928816118bc565b82525050565b600073ffffffffffffffffffffffffffffffffffffffff82169050919050565b60006119598261192e565b9050919050565b6119698161194e565b82525050565b7f4e487b7100000000000000000000000000000000000000000000000000000000600052602160045260246000fd5b600481106119af576119ae61196f565b5b50565b60008190506119c08261199e565b919050565b60006119d0826119b2565b9050919050565b6119e0816119c5565b82525050565b60008115159050919050565b6119fb816119e6565b82525050565b600081519050919050565b600082825260208201905092915050565b60005b83811015611a3b578082015181840152602081019050611a20565b60008484015250505050565b6000601f19601f8301169050919050565b6000611a6382611a01565b611a6d8185611a0c565b9350611a7d818560208601611a1d565b611a8681611a47565b840191505092915050565b600061018083016000830151611aaa600086018261191f565b506020830151611abd602086018261191f565b506040830151611ad0604086018261191f565b506060830151611ae3606086018261191f565b506080830151611af6608086018261191f565b5060a0830151611b0960a086018261191f565b5060c0830151611b1c60c086018261191f565b5060e0830151611b2f60e0860182611960565b50610100830151611b44610100860182611960565b50610120830151611b596101208601826119d7565b50610140830151611b6e6101408601826119f2565b50610160830151848203610160860152611b888282611a58565b9150508091505092915050565b60006020820190508181036000830152611baf8184611a91565b905092915050565b600080fd5b7f4e487b7100000000000000000000000000000000000000000000000000000000600052604160045260246000fd5b611bf482611a47565b810181811067ffffffffffffffff82111715611c1357611c12611bbc565b5b80604052505050565b6000611c266118a8565b9050611c328282611beb565b919050565b600080fd5b611c458161194e565b8114611c5057600080fd5b50565b600081359050611c6281611c3c565b92915050565b60048110611c7557600080fd5b50565b600081359050611c8781611c68565b92915050565b611c96816119e6565b8114611ca157600080fd5b50565b600081359050611cb381611c8d565b92915050565b600080fd5b600080fd5b600067ffffffffffffffff821115611cde57611cdd611bbc565b5b611ce782611a47565b9050602081019050919050565b82818337600083830152505050565b6000611d16611d1184611cc3565b611c1c565b905082815260208101848484011115611d3257611d31611cbe565b5b611d3d848285611cf4565b509392505050565b600082601f830112611d5a57611d59611cb9565b5b8135611d6a848260208601611d03565b91505092915050565b60006101808284031215611d8a57611d89611bb7565b5b611d95610180611c1c565b90506000611da5848285016118dd565b6000830152506020611db9848285016118dd565b6020830152506040611dcd848285016118dd565b6040830152506060611de1848285016118dd565b6060830152506080611df5848285016118dd565b60808301525060a0611e09848285016118dd565b60a08301525060c0611e1d848285016118dd565b60c08301525060e0611e3184828501611c53565b60e083015250610100611e4684828501611c53565b61010083015250610120611e5c84828501611c78565b61012083015250610140611e7284828501611ca4565b6101408301525061016082013567ffffffffffffffff811115611e9857611e97611c37565b5b611ea484828501611d45565b6101608301525092915050565b600060208284031215611ec757611ec66118b2565b5b600082013567ffffffffffffffff811115611ee557611ee46118b7565b5b611ef184828501611d73565b91505092915050565b611f038161194e565b82525050565b6000602082019050611f1e6000830184611efa565b92915050565b600082825260208201905092915050565b6000611f4082611a01565b611f4a8185611f24565b9350611f5a818560208601611a1d565b611f6381611a47565b840191505092915050565b60006020820190508181036000830152611f888184611f35565b905092915050565b611f99816118bc565b82525050565b6000602082019050611fb46000830184611f90565b92915050565b60028110611fcb57611fca61196f565b5b50565b6000819050611fdc82611fba565b919050565b6000611fec82611fce565b9050919050565b611ffc81611fe1565b82525050565b60006020820190506120176000830184611ff3565b92915050565b612026816119c5565b82525050565b612035816119e6565b82525050565b600061018082019050612051600083018f611f90565b61205e602083018e611f90565b61206b604083018d611f90565b612078606083018c611f90565b612085608083018b611f90565b61209260a083018a611f90565b61209f60c0830189611f90565b6120ac60e0830188611efa565b6120ba610100830187611efa565b6120c861012083018661201d565b6120d661014083018561202c565b8181036101608301526120e98184611f35565b90509d9c50505050505050505050505050565b600060208284031215612112576121116118b2565b5b600061212084828501611c53565b91505092915050565b7f4e487b7100000000000000000000000000000000000000000000000000000000600052602260045260246000fd5b6000600282049050600182168061217057607f821691505b60208210810361218357612182612129565b5b50919050565b60006121948261192e565b9050919050565b60006121a682612189565b9050919050565b6121b68161219b565b81146121c157600080fd5b50565b6000815190506121d3816121ad565b92915050565b6000602082840312156121ef576121ee6118b2565b5b60006121fd848285016121c4565b91505092915050565b600081519050919050565b600082825260208201905092915050565b600061222d82612206565b6122378185612211565b9350612247818560208601611a1d565b61225081611a47565b840191505092915050565b60006040820190506122706000830185611efa565b81810360208301526122828184612222565b90509392505050565b600067ffffffffffffffff8211156122a6576122a5611bbc565b5b6122af82611a47565b9050602081019050919050565b60006122cf6122ca8461228b565b611c1c565b9050828152602081018484840111156122eb576122ea611cbe565b5b6122f6848285611a1d565b509392505050565b600082601f83011261231357612312611cb9565b5b81516123238482602086016122bc565b91505092915050565b600060208284031215612342576123416118b2565b5b600082015167ffffffffffffffff8111156123605761235f6118b7565b5b61236c848285016122fe565b91505092915050565b600081519050612384816118c6565b92915050565b6000602082840312156123a05761239f6118b2565b5b60006123ae84828501612375565b91505092915050565b6000815190506123c681611c8d565b92915050565b6000602082840312156123e2576123e16118b2565b5b60006123f0848285016123b7565b91505092915050565b7f4e487b7100000000000000000000000000000000000000000000000000000000600052601160045260246000fd5b6000612433826118bc565b915061243e836118bc565b9250817fffffffffffffffffffffffffffffffffffffffffffffffffffffffffffffffff0483118215151615612477576124766123f9565b5b828202905092915050565b7f4e487b7100000000000000000000000000000000000000000000000000000000600052601260045260246000fd5b60006124bc826118bc565b91506124c7836118bc565b9250826124d7576124d6612482565b5b828204905092915050565b60008190508160005260206000209050919050565b60006020601f8301049050919050565b600082821b905092915050565b6000600883026125447fffffffffffffffffffffffffffffffffffffffffffffffffffffffffffffffff82612507565b61254e8683612507565b95508019841693508086168417925050509392505050565b6000819050919050565b600061258b612586612581846118bc565b612566565b6118bc565b9050919050565b6000819050919050565b6125a583612570565b6125b96125b182612592565b848454612514565b825550505050565b600090565b6125ce6125c1565b6125d981848461259c565b505050565b5b818110156125fd576125f26000826125c6565b6001810190506125df565b5050565b601f82111561264257612613816124e2565b61261c846124f7565b8101602085101561262b578190505b61263f612637856124f7565b8301826125de565b50505b505050565b600082821c905092915050565b600061266560001984600802612647565b1980831691505092915050565b600061267e8383612654565b9150826002028217905092915050565b61269782611a01565b67ffffffffffffffff8111156126b0576126af611bbc565b5b6126ba8254612158565b6126c5828285612601565b600060209050601f8311600181146126f857600084156126e6578287015190505b6126f08582612672565b865550612758565b601f198416612706866124e2565b60005b8281101561272e57848901518255600182019150602085019450602081019050612709565b8683101561274b5784890151612747601f891682612654565b8355505b6001600288020188555050505b505050505050565b600061276b826118bc565b91507fffffffffffffffffffffffffffffffffffffffffffffffffffffffffffffffff820361279d5761279c6123f9565b5b600182019050919050565b7f4f776e61626c653a206e6577206f776e657220697320746865207a65726f206160008201527f6464726573730000000000000000000000000000000000000000000000000000602082015250565b6000612804602683611f24565b915061280f826127a8565b604082019050919050565b60006020820190508181036000830152612833816127f7565b9050919050565b7f4f776e61626c653a2063616c6c6572206973206e6f7420746865206f776e6572600082015250565b6000612870602083611f24565b915061287b8261283a565b602082019050919050565b6000602082019050818103600083015261289f81612863565b905091905056fea2646970667358221220d8897c2bcdfcefcbd82cf1b971208259bbb318d26ce7eb52b0b2d7ce8812fafa64736f6c63430008100033",
  "linkReferences": {},
  "deployedLinkReferences": {}
}