{
  "_format": "hh-sol-artifact-1",
  "contractName": "TropykusBorrowingService",
  "sourceName": "contracts/tropykus/TropykusBorrowingService.sol",
  "abi": [
    {
      "inputs": [
        {
          "internalType": "contract UserIdentityFactory",
          "name": "userIdentityFactory",
          "type": "address"
        },
        {
          "components": [
            {
              "internalType": "address",
              "name": "comptroller",
              "type": "address"
            },
            {
              "internalType": "address",
              "name": "oracle",
              "type": "address"
            },
            {
              "internalType": "address",
              "name": "crbtc",
              "type": "address"
            },
            {
              "internalType": "address",
              "name": "cdoc",
              "type": "address"
            }
          ],
          "internalType": "struct TropykusBorrowingService.TropykusContracts",
          "name": "contracts",
          "type": "tuple"
        }
      ],
      "stateMutability": "nonpayable",
      "type": "constructor"
    },
    {
      "inputs": [
        {
          "internalType": "uint256",
          "name": "amount",
          "type": "uint256"
        }
      ],
      "name": "InvalidAmount",
      "type": "error"
    },
    {
      "inputs": [
        {
          "internalType": "uint256",
          "name": "amount",
          "type": "uint256"
        },
        {
          "internalType": "uint256",
          "name": "expectedAmount",
          "type": "uint256"
        }
      ],
      "name": "InvalidCollateralAmount",
      "type": "error"
    },
    {
      "inputs": [
        {
          "internalType": "address",
          "name": "user",
          "type": "address"
        }
      ],
      "name": "MissingIdentity",
      "type": "error"
    },
    {
      "anonymous": false,
      "inputs": [
        {
          "indexed": true,
          "internalType": "uint256",
          "name": "listingId",
          "type": "uint256"
        },
        {
          "indexed": true,
          "internalType": "address",
          "name": "borrower",
          "type": "address"
        },
        {
          "indexed": true,
          "internalType": "address",
          "name": "currency",
          "type": "address"
        },
        {
          "indexed": false,
          "internalType": "uint256",
          "name": "amount",
          "type": "uint256"
        },
        {
          "indexed": false,
          "internalType": "uint256",
          "name": "duration",
          "type": "uint256"
        }
      ],
      "name": "Borrow",
      "type": "event"
    },
    {
      "anonymous": false,
      "inputs": [
        {
          "indexed": true,
          "internalType": "uint256",
          "name": "listingId",
          "type": "uint256"
        },
        {
          "indexed": true,
          "internalType": "address",
          "name": "lender",
          "type": "address"
        },
        {
          "indexed": true,
          "internalType": "address",
          "name": "currency",
          "type": "address"
        },
        {
          "indexed": false,
          "internalType": "uint256",
          "name": "amount",
          "type": "uint256"
        }
      ],
      "name": "Lend",
      "type": "event"
    },
    {
      "anonymous": false,
      "inputs": [
        {
          "indexed": true,
          "internalType": "address",
          "name": "currency",
          "type": "address"
        },
        {
          "indexed": true,
          "internalType": "uint256",
          "name": "listingId",
          "type": "uint256"
        }
      ],
      "name": "ListingCreated",
      "type": "event"
    },
    {
      "anonymous": false,
      "inputs": [
        {
          "indexed": true,
          "internalType": "address",
          "name": "previousOwner",
          "type": "address"
        },
        {
          "indexed": true,
          "internalType": "address",
          "name": "newOwner",
          "type": "address"
        }
      ],
      "name": "OwnershipTransferred",
      "type": "event"
    },
    {
      "anonymous": false,
      "inputs": [
        {
          "indexed": true,
          "internalType": "uint256",
          "name": "listingId",
          "type": "uint256"
        },
        {
          "indexed": true,
          "internalType": "address",
          "name": "borrower",
          "type": "address"
        },
        {
          "indexed": true,
          "internalType": "address",
          "name": "currency",
          "type": "address"
        },
        {
          "indexed": false,
          "internalType": "uint256",
          "name": "amount",
          "type": "uint256"
        }
      ],
      "name": "Pay",
      "type": "event"
    },
    {
      "anonymous": false,
      "inputs": [
        {
          "indexed": true,
          "internalType": "uint256",
          "name": "listingId",
          "type": "uint256"
        },
        {
          "indexed": true,
          "internalType": "address",
          "name": "withdrawer",
          "type": "address"
        },
        {
          "indexed": true,
          "internalType": "address",
          "name": "currency",
          "type": "address"
        },
        {
          "indexed": false,
          "internalType": "uint256",
          "name": "amount",
          "type": "uint256"
        }
      ],
      "name": "Withdraw",
      "type": "event"
    },
    {
      "inputs": [
        {
          "internalType": "uint256",
          "name": "amount",
          "type": "uint256"
        },
        {
          "internalType": "uint256",
          "name": "index",
          "type": "uint256"
        }
      ],
      "name": "addLiquidity",
      "outputs": [],
      "stateMutability": "nonpayable",
      "type": "function"
    },
    {
      "inputs": [
        {
          "components": [
            {
              "internalType": "uint256",
              "name": "id",
              "type": "uint256"
            },
            {
              "internalType": "uint256",
              "name": "minAmount",
              "type": "uint256"
            },
            {
              "internalType": "uint256",
              "name": "maxAmount",
              "type": "uint256"
            },
            {
              "internalType": "uint256",
              "name": "minDuration",
              "type": "uint256"
            },
            {
              "internalType": "uint256",
              "name": "maxDuration",
              "type": "uint256"
            },
            {
              "internalType": "uint256",
              "name": "interestRate",
              "type": "uint256"
            },
            {
              "internalType": "uint256",
              "name": "loanToValue",
              "type": "uint256"
            },
            {
              "internalType": "address",
              "name": "loanToValueTokenAddr",
              "type": "address"
            },
            {
              "internalType": "address",
              "name": "currency",
              "type": "address"
            },
            {
              "internalType": "enum PayBackOption",
              "name": "payBackOption",
              "type": "uint8"
            },
            {
              "internalType": "bool",
              "name": "enabled",
              "type": "bool"
            },
            {
              "internalType": "string",
              "name": "name",
              "type": "string"
            }
          ],
          "internalType": "struct ServiceListing",
          "name": "listing",
          "type": "tuple"
        }
      ],
      "name": "addListing",
      "outputs": [
        {
          "internalType": "uint256",
          "name": "",
          "type": "uint256"
        }
      ],
      "stateMutability": "nonpayable",
      "type": "function"
    },
    {
      "inputs": [
        {
          "internalType": "uint256",
          "name": "amount",
          "type": "uint256"
        },
        {
          "internalType": "address",
          "name": "currency",
          "type": "address"
        },
        {
          "internalType": "uint256",
          "name": "index",
          "type": "uint256"
        },
        {
          "internalType": "uint256",
          "name": "duration",
          "type": "uint256"
        }
      ],
      "name": "borrow",
      "outputs": [],
      "stateMutability": "payable",
      "type": "function"
    },
    {
      "inputs": [
        {
          "internalType": "uint256",
          "name": "amount",
          "type": "uint256"
        },
        {
          "internalType": "address",
          "name": "currency",
          "type": "address"
        }
      ],
      "name": "calculateRequiredCollateral",
      "outputs": [
        {
          "internalType": "uint256",
          "name": "",
          "type": "uint256"
        }
      ],
      "stateMutability": "view",
      "type": "function"
    },
    {
      "inputs": [
        {
          "internalType": "uint256",
          "name": "index",
          "type": "uint256"
        }
      ],
      "name": "currentLiquidity",
      "outputs": [
        {
          "internalType": "uint256",
          "name": "liquidity",
          "type": "uint256"
        }
      ],
      "stateMutability": "view",
      "type": "function"
    },
    {
      "inputs": [
        {
          "internalType": "uint256",
          "name": "listingId",
          "type": "uint256"
        }
      ],
      "name": "disableListing",
      "outputs": [],
      "stateMutability": "nonpayable",
      "type": "function"
    },
    {
      "inputs": [
        {
          "internalType": "address",
          "name": "currency",
          "type": "address"
        }
      ],
      "name": "getBalance",
      "outputs": [
        {
          "internalType": "uint256",
          "name": "",
          "type": "uint256"
        }
      ],
      "stateMutability": "view",
      "type": "function"
    },
    {
      "inputs": [],
      "name": "getCollateralBalance",
      "outputs": [
        {
          "internalType": "uint256",
          "name": "",
          "type": "uint256"
        }
      ],
      "stateMutability": "view",
      "type": "function"
    },
    {
      "inputs": [
        {
          "internalType": "uint256",
          "name": "listingId",
          "type": "uint256"
        }
      ],
      "name": "getListing",
      "outputs": [
        {
          "components": [
            {
              "internalType": "uint256",
              "name": "id",
              "type": "uint256"
            },
            {
              "internalType": "uint256",
              "name": "minAmount",
              "type": "uint256"
            },
            {
              "internalType": "uint256",
              "name": "maxAmount",
              "type": "uint256"
            },
            {
              "internalType": "uint256",
              "name": "minDuration",
              "type": "uint256"
            },
            {
              "internalType": "uint256",
              "name": "maxDuration",
              "type": "uint256"
            },
            {
              "internalType": "uint256",
              "name": "interestRate",
              "type": "uint256"
            },
            {
              "internalType": "uint256",
              "name": "loanToValue",
              "type": "uint256"
            },
            {
              "internalType": "address",
              "name": "loanToValueTokenAddr",
              "type": "address"
            },
            {
              "internalType": "address",
              "name": "currency",
              "type": "address"
            },
            {
              "internalType": "enum PayBackOption",
              "name": "payBackOption",
              "type": "uint8"
            },
            {
              "internalType": "bool",
              "name": "enabled",
              "type": "bool"
            },
            {
              "internalType": "string",
              "name": "name",
              "type": "string"
            }
          ],
          "internalType": "struct ServiceListing",
          "name": "",
          "type": "tuple"
        }
      ],
      "stateMutability": "view",
      "type": "function"
    },
    {
      "inputs": [],
      "name": "getListingsCount",
      "outputs": [
        {
          "internalType": "uint256",
          "name": "",
          "type": "uint256"
        }
      ],
      "stateMutability": "view",
      "type": "function"
    },
    {
      "inputs": [
        {
          "internalType": "uint256",
          "name": "",
          "type": "uint256"
        }
      ],
      "name": "listings",
      "outputs": [
        {
          "internalType": "uint256",
          "name": "id",
          "type": "uint256"
        },
        {
          "internalType": "uint256",
          "name": "minAmount",
          "type": "uint256"
        },
        {
          "internalType": "uint256",
          "name": "maxAmount",
          "type": "uint256"
        },
        {
          "internalType": "uint256",
          "name": "minDuration",
          "type": "uint256"
        },
        {
          "internalType": "uint256",
          "name": "maxDuration",
          "type": "uint256"
        },
        {
          "internalType": "uint256",
          "name": "interestRate",
          "type": "uint256"
        },
        {
          "internalType": "uint256",
          "name": "loanToValue",
          "type": "uint256"
        },
        {
          "internalType": "address",
          "name": "loanToValueTokenAddr",
          "type": "address"
        },
        {
          "internalType": "address",
          "name": "currency",
          "type": "address"
        },
        {
          "internalType": "enum PayBackOption",
          "name": "payBackOption",
          "type": "uint8"
        },
        {
          "internalType": "bool",
          "name": "enabled",
          "type": "bool"
        },
        {
          "internalType": "string",
          "name": "name",
          "type": "string"
        }
      ],
      "stateMutability": "view",
      "type": "function"
    },
    {
      "inputs": [],
      "name": "owner",
      "outputs": [
        {
          "internalType": "address",
          "name": "",
          "type": "address"
        }
      ],
      "stateMutability": "view",
      "type": "function"
    },
    {
      "inputs": [
        {
          "internalType": "uint256",
          "name": "amount",
          "type": "uint256"
        },
        {
          "internalType": "address",
          "name": "currency",
          "type": "address"
        },
        {
          "internalType": "uint256",
          "name": "index",
          "type": "uint256"
        }
      ],
      "name": "pay",
      "outputs": [],
      "stateMutability": "payable",
      "type": "function"
    },
    {
      "inputs": [
        {
          "internalType": "uint256",
          "name": "amount",
          "type": "uint256"
        },
        {
          "internalType": "uint256",
          "name": "index",
          "type": "uint256"
        }
      ],
      "name": "removeLiquidity",
      "outputs": [],
      "stateMutability": "nonpayable",
      "type": "function"
    },
    {
      "inputs": [],
      "name": "renounceOwnership",
      "outputs": [],
      "stateMutability": "nonpayable",
      "type": "function"
    },
    {
      "inputs": [],
      "name": "serviceProviderName",
      "outputs": [
        {
          "internalType": "string",
          "name": "",
          "type": "string"
        }
      ],
      "stateMutability": "view",
      "type": "function"
    },
    {
      "inputs": [],
      "name": "serviceType",
      "outputs": [
        {
          "internalType": "enum ServiceType",
          "name": "",
          "type": "uint8"
        }
      ],
      "stateMutability": "view",
      "type": "function"
    },
    {
      "inputs": [
        {
          "internalType": "address",
          "name": "newOwner",
          "type": "address"
        }
      ],
      "name": "transferOwnership",
      "outputs": [],
      "stateMutability": "nonpayable",
      "type": "function"
    },
    {
      "inputs": [
        {
          "components": [
            {
              "internalType": "uint256",
              "name": "id",
              "type": "uint256"
            },
            {
              "internalType": "uint256",
              "name": "minAmount",
              "type": "uint256"
            },
            {
              "internalType": "uint256",
              "name": "maxAmount",
              "type": "uint256"
            },
            {
              "internalType": "uint256",
              "name": "minDuration",
              "type": "uint256"
            },
            {
              "internalType": "uint256",
              "name": "maxDuration",
              "type": "uint256"
            },
            {
              "internalType": "uint256",
              "name": "interestRate",
              "type": "uint256"
            },
            {
              "internalType": "uint256",
              "name": "loanToValue",
              "type": "uint256"
            },
            {
              "internalType": "address",
              "name": "loanToValueTokenAddr",
              "type": "address"
            },
            {
              "internalType": "address",
              "name": "currency",
              "type": "address"
            },
            {
              "internalType": "enum PayBackOption",
              "name": "payBackOption",
              "type": "uint8"
            },
            {
              "internalType": "bool",
              "name": "enabled",
              "type": "bool"
            },
            {
              "internalType": "string",
              "name": "name",
              "type": "string"
            }
          ],
          "internalType": "struct ServiceListing",
          "name": "listing",
          "type": "tuple"
        }
      ],
      "name": "updateListing",
      "outputs": [],
      "stateMutability": "nonpayable",
      "type": "function"
    },
    {
      "inputs": [],
      "name": "withdraw",
      "outputs": [],
      "stateMutability": "nonpayable",
      "type": "function"
    }
  ],
  "bytecode": "0x60806040523480156200001157600080fd5b50604051620041b6380380620041b68339818101604052810190620000379190620004bd565b6040518060400160405280600881526020017f54726f70796b75730000000000000000000000000000000000000000000000008152506200008d620000816200021960201b60201c565b6200022160201b60201c565b6001600060146101000a81548160ff02191690836001811115620000b657620000b562000504565b5b0217905550508060000151600460006101000a81548173ffffffffffffffffffffffffffffffffffffffff021916908373ffffffffffffffffffffffffffffffffffffffff1602179055508060200151600560006101000a81548173ffffffffffffffffffffffffffffffffffffffff021916908373ffffffffffffffffffffffffffffffffffffffff1602179055508060400151600660006101000a81548173ffffffffffffffffffffffffffffffffffffffff021916908373ffffffffffffffffffffffffffffffffffffffff1602179055508060600151600760006101000a81548173ffffffffffffffffffffffffffffffffffffffff021916908373ffffffffffffffffffffffffffffffffffffffff16021790555081600860006101000a81548173ffffffffffffffffffffffffffffffffffffffff021916908373ffffffffffffffffffffffffffffffffffffffff160217905550505062000533565b600033905090565b60008060009054906101000a900473ffffffffffffffffffffffffffffffffffffffff169050816000806101000a81548173ffffffffffffffffffffffffffffffffffffffff021916908373ffffffffffffffffffffffffffffffffffffffff1602179055508173ffffffffffffffffffffffffffffffffffffffff168173ffffffffffffffffffffffffffffffffffffffff167f8be0079c531659141344cd1fd0a4f28419497f9722a3daafe3b4186f6b6457e060405160405180910390a35050565b6000604051905090565b600080fd5b600073ffffffffffffffffffffffffffffffffffffffff82169050919050565b60006200032182620002f4565b9050919050565b6000620003358262000314565b9050919050565b620003478162000328565b81146200035357600080fd5b50565b60008151905062000367816200033c565b92915050565b600080fd5b6000601f19601f8301169050919050565b7f4e487b7100000000000000000000000000000000000000000000000000000000600052604160045260246000fd5b620003bd8262000372565b810181811067ffffffffffffffff82111715620003df57620003de62000383565b5b80604052505050565b6000620003f4620002e5565b9050620004028282620003b2565b919050565b620004128162000314565b81146200041e57600080fd5b50565b600081519050620004328162000407565b92915050565b6000608082840312156200045157620004506200036d565b5b6200045d6080620003e8565b905060006200046f8482850162000421565b6000830152506020620004858482850162000421565b60208301525060406200049b8482850162000421565b6040830152506060620004b18482850162000421565b60608301525092915050565b60008060a08385031215620004d757620004d6620002ef565b5b6000620004e78582860162000356565b9250506020620004fa8582860162000438565b9150509250929050565b7f4e487b7100000000000000000000000000000000000000000000000000000000600052602160045260246000fd5b613c7380620005436000396000f3fe60806040526004361061011f5760003560e01c80639d7de6b3116100a0578063dc419a0911610064578063dc419a091461037f578063de74e57b146103bc578063e390d4df14610404578063f2fde38b14610441578063f8b2cb4f1461046a5761011f565b80639d7de6b314610298578063c84216a2146102c1578063cbaa068f146102ec578063cd1bef2114610317578063db0881a1146103545761011f565b80635c3fec1e116100e75780635c3fec1e146101e8578063715018a6146102115780638327c214146102285780638da5cb5b146102445780639cd441da1461026f5761011f565b80630313766f14610124578063107a274a146101405780631529a6391461017d5780633ccfd60b146101a85780634085aaac146101bf575b600080fd5b61013e6004803603810190610139919061286c565b6104a7565b005b34801561014c57600080fd5b50610167600480360381019061016291906128bf565b6107dd565b6040516101749190612b30565b60405180910390f35b34801561018957600080fd5b506101926109e5565b60405161019f9190612b61565b60405180910390f35b3480156101b457600080fd5b506101bd610d7b565b005b3480156101cb57600080fd5b506101e660048036038101906101e19190612e4a565b6112d4565b005b3480156101f457600080fd5b5061020f600480360381019061020a91906128bf565b611438565b005b34801561021d57600080fd5b50610226611472565b005b610242600480360381019061023d9190612e93565b611486565b005b34801561025057600080fd5b50610259611bf9565b6040516102669190612f09565b60405180910390f35b34801561027b57600080fd5b5061029660048036038101906102919190612f24565b611c22565b005b3480156102a457600080fd5b506102bf60048036038101906102ba9190612f24565b611c5b565b005b3480156102cd57600080fd5b506102d6611c71565b6040516102e39190612fae565b60405180910390f35b3480156102f857600080fd5b50610301611cff565b60405161030e9190612b61565b60405180910390f35b34801561032357600080fd5b5061033e600480360381019061033991906128bf565b611d09565b60405161034b9190612b61565b60405180910390f35b34801561036057600080fd5b50610369611d29565b6040516103769190613018565b60405180910390f35b34801561038b57600080fd5b506103a660048036038101906103a19190612e4a565b611d3c565b6040516103b39190612b61565b60405180910390f35b3480156103c857600080fd5b506103e360048036038101906103de91906128bf565b611f12565b6040516103fb9c9b9a99989796959493929190613051565b60405180910390f35b34801561041057600080fd5b5061042b60048036038101906104269190613112565b612054565b6040516104389190612b61565b60405180910390f35b34801561044d57600080fd5b5061046860048036038101906104639190613152565b6122ee565b005b34801561047657600080fd5b50610491600480360381019061048c9190613152565b612371565b60405161049e9190612b61565b60405180910390f35b600083116104ea576040517f08c379a00000000000000000000000000000000000000000000000000000000081526004016104e1906131cb565b60405180910390fd5b6000600860009054906101000a900473ffffffffffffffffffffffffffffffffffffffff1673ffffffffffffffffffffffffffffffffffffffff16632fea7b81336040518263ffffffff1660e01b81526004016105479190612f09565b602060405180830381865afa158015610564573d6000803e3d6000fd5b505050506040513d601f19601f82011682018060405250810190610588919061323b565b9050600073ffffffffffffffffffffffffffffffffffffffff168173ffffffffffffffffffffffffffffffffffffffff16036105fb57336040517f19b57eb30000000000000000000000000000000000000000000000000000000081526004016105f29190612f09565b60405180910390fd5b8073ffffffffffffffffffffffffffffffffffffffff1663d26b117c600760009054906101000a900473ffffffffffffffffffffffffffffffffffffffff167fffffffffffffffffffffffffffffffffffffffffffffffffffffffffffffffff60405160240161066b9190612b61565b6040516020818303038152906040527f0e752702000000000000000000000000000000000000000000000000000000007bffffffffffffffffffffffffffffffffffffffffffffffffffffffff19166020820180517bffffffffffffffffffffffffffffffffffffffffffffffffffffffff83818316178352505050508688600760009054906101000a900473ffffffffffffffffffffffffffffffffffffffff166040518663ffffffff1660e01b815260040161072d9594939291906132bd565b6020604051808303816000875af115801561074c573d6000803e3d6000fd5b505050506040513d601f19601f82011682018060405250810190610770919061332c565b508273ffffffffffffffffffffffffffffffffffffffff163373ffffffffffffffffffffffffffffffffffffffff16837fece4e547ae0655a2613e99bed9e2f496b3b3dd8b0768cfbae0a6070b05782cea876040516107cf9190612b61565b60405180910390a450505050565b6107e5612723565b6002600083815260200190815260200160002060405180610180016040529081600082015481526020016001820154815260200160028201548152602001600382015481526020016004820154815260200160058201548152602001600682015481526020016007820160009054906101000a900473ffffffffffffffffffffffffffffffffffffffff1673ffffffffffffffffffffffffffffffffffffffff1673ffffffffffffffffffffffffffffffffffffffff1681526020016008820160009054906101000a900473ffffffffffffffffffffffffffffffffffffffff1673ffffffffffffffffffffffffffffffffffffffff1673ffffffffffffffffffffffffffffffffffffffff1681526020016008820160149054906101000a900460ff16600381111561091b5761091a61290a565b5b600381111561092d5761092c61290a565b5b81526020016008820160159054906101000a900460ff1615151515815260200160098201805461095c90613388565b80601f016020809104026020016040519081016040528092919081815260200182805461098890613388565b80156109d55780601f106109aa576101008083540402835291602001916109d5565b820191906000526020600020905b8154815290600101906020018083116109b857829003601f168201915b5050505050815250509050919050565b600080600860009054906101000a900473ffffffffffffffffffffffffffffffffffffffff1673ffffffffffffffffffffffffffffffffffffffff16632fea7b81336040518263ffffffff1660e01b8152600401610a439190612f09565b602060405180830381865afa158015610a60573d6000803e3d6000fd5b505050506040513d601f19601f82011682018060405250810190610a84919061323b565b9050600073ffffffffffffffffffffffffffffffffffffffff168173ffffffffffffffffffffffffffffffffffffffff1603610ac4576000915050610d78565b60008173ffffffffffffffffffffffffffffffffffffffff1663d79f44eb600660009054906101000a900473ffffffffffffffffffffffffffffffffffffffff166040516024016040516020818303038152906040527f182df0f5000000000000000000000000000000000000000000000000000000007bffffffffffffffffffffffffffffffffffffffffffffffffffffffff19166020820180517bffffffffffffffffffffffffffffffffffffffffffffffffffffffff83818316178352505050506040518363ffffffff1660e01b8152600401610ba59291906133b9565b600060405180830381865afa158015610bc2573d6000803e3d6000fd5b505050506040513d6000823e3d601f19601f82011682018060405250810190610beb919061348a565b9050600081806020019051810190610c0391906134e8565b905060008373ffffffffffffffffffffffffffffffffffffffff1663d79f44eb600660009054906101000a900473ffffffffffffffffffffffffffffffffffffffff1686604051602401610c579190612f09565b6040516020818303038152906040527f70a08231000000000000000000000000000000000000000000000000000000007bffffffffffffffffffffffffffffffffffffffffffffffffffffffff19166020820180517bffffffffffffffffffffffffffffffffffffffffffffffffffffffff83818316178352505050506040518363ffffffff1660e01b8152600401610cf19291906133b9565b600060405180830381865afa158015610d0e573d6000803e3d6000fd5b505050506040513d6000823e3d601f19601f82011682018060405250810190610d37919061348a565b9050600081806020019051810190610d4f91906134e8565b9050670de0b6b3a76400008184610d669190613544565b610d7091906135cd565b955050505050505b90565b6000600860009054906101000a900473ffffffffffffffffffffffffffffffffffffffff1673ffffffffffffffffffffffffffffffffffffffff16632fea7b81336040518263ffffffff1660e01b8152600401610dd89190612f09565b602060405180830381865afa158015610df5573d6000803e3d6000fd5b505050506040513d601f19601f82011682018060405250810190610e19919061323b565b9050600073ffffffffffffffffffffffffffffffffffffffff168173ffffffffffffffffffffffffffffffffffffffff1603610e8c57336040517f19b57eb3000000000000000000000000000000000000000000000000000000008152600401610e839190612f09565b60405180910390fd5b60008173ffffffffffffffffffffffffffffffffffffffff1663d79f44eb600660009054906101000a900473ffffffffffffffffffffffffffffffffffffffff1684604051602401610ede9190612f09565b6040516020818303038152906040527f70a08231000000000000000000000000000000000000000000000000000000007bffffffffffffffffffffffffffffffffffffffffffffffffffffffff19166020820180517bffffffffffffffffffffffffffffffffffffffffffffffffffffffff83818316178352505050506040518363ffffffff1660e01b8152600401610f789291906133b9565b600060405180830381865afa158015610f95573d6000803e3d6000fd5b505050506040513d6000823e3d601f19601f82011682018060405250810190610fbe919061348a565b9050600081806020019051810190610fd691906134e8565b90508273ffffffffffffffffffffffffffffffffffffffff1663621091c2600660009054906101000a900473ffffffffffffffffffffffffffffffffffffffff16836040516024016110289190612b61565b6040516020818303038152906040527fdb006a75000000000000000000000000000000000000000000000000000000007bffffffffffffffffffffffffffffffffffffffffffffffffffffffff19166020820180517bffffffffffffffffffffffffffffffffffffffffffffffffffffffff83818316178352505050506040518363ffffffff1660e01b81526004016110c29291906133b9565b6020604051808303816000875af11580156110e1573d6000803e3d6000fd5b505050506040513d601f19601f82011682018060405250810190611105919061332c565b5060008373ffffffffffffffffffffffffffffffffffffffff1663d79f44eb600660009054906101000a900473ffffffffffffffffffffffffffffffffffffffff166040516024016040516020818303038152906040527f182df0f5000000000000000000000000000000000000000000000000000000007bffffffffffffffffffffffffffffffffffffffffffffffffffffffff19166020820180517bffffffffffffffffffffffffffffffffffffffffffffffffffffffff83818316178352505050506040518363ffffffff1660e01b81526004016111e79291906133b9565b600060405180830381865afa158015611204573d6000803e3d6000fd5b505050506040513d6000823e3d601f19601f8201168201806040525081019061122d919061348a565b905060008180602001905181019061124591906134e8565b9050600073ffffffffffffffffffffffffffffffffffffffff163373ffffffffffffffffffffffffffffffffffffffff1660007ffeb2000dca3e617cd6f3a8bbb63014bb54a124aac6ccbf73ee7229b4cd01f120670de0b6b3a764000085886112ae9190613544565b6112b891906135cd565b6040516112c59190612b61565b60405180910390a45050505050565b6112dc6125a8565b806002600083600001518152602001908152602001600020600082015181600001556020820151816001015560408201518160020155606082015181600301556080820151816004015560a0820151816005015560c0820151816006015560e08201518160070160006101000a81548173ffffffffffffffffffffffffffffffffffffffff021916908373ffffffffffffffffffffffffffffffffffffffff1602179055506101008201518160080160006101000a81548173ffffffffffffffffffffffffffffffffffffffff021916908373ffffffffffffffffffffffffffffffffffffffff1602179055506101208201518160080160146101000a81548160ff021916908360038111156113f5576113f461290a565b5b02179055506101408201518160080160156101000a81548160ff02191690831515021790555061016082015181600901908161143191906137aa565b5090505050565b6114406125a8565b60006002600083815260200190815260200160002060080160156101000a81548160ff02191690831515021790555050565b61147a6125a8565b6114846000612626565b565b600084116114c9576040517f08c379a00000000000000000000000000000000000000000000000000000000081526004016114c0906131cb565b60405180910390fd5b6000341161150c576040517f08c379a0000000000000000000000000000000000000000000000000000000008152600401611503906138c8565b60405180910390fd5b6000600860009054906101000a900473ffffffffffffffffffffffffffffffffffffffff1673ffffffffffffffffffffffffffffffffffffffff16632fea7b81336040518263ffffffff1660e01b81526004016115699190612f09565b602060405180830381865afa158015611586573d6000803e3d6000fd5b505050506040513d601f19601f820116820180604052508101906115aa919061323b565b9050600073ffffffffffffffffffffffffffffffffffffffff168173ffffffffffffffffffffffffffffffffffffffff160361168157600860009054906101000a900473ffffffffffffffffffffffffffffffffffffffff1673ffffffffffffffffffffffffffffffffffffffff16635b2ab06c336040518263ffffffff1660e01b815260040161163b9190612f09565b6020604051808303816000875af115801561165a573d6000803e3d6000fd5b505050506040513d601f19601f8201168201806040525081019061167e919061323b565b90505b600061168d8686612054565b9050803410156116d65734816040517f2565b3ee0000000000000000000000000000000000000000000000000000000081526004016116cd9291906138e8565b60405180910390fd5b8173ffffffffffffffffffffffffffffffffffffffff1663c89acc8634600660009054906101000a900473ffffffffffffffffffffffffffffffffffffffff166040516024016040516020818303038152906040527f1249c58b000000000000000000000000000000000000000000000000000000007bffffffffffffffffffffffffffffffffffffffffffffffffffffffff19166020820180517bffffffffffffffffffffffffffffffffffffffffffffffffffffffff83818316178352505050506040518463ffffffff1660e01b81526004016117b69291906133b9565b60206040518083038185885af11580156117d4573d6000803e3d6000fd5b50505050506040513d601f19601f820116820180604052508101906117f9919061332c565b506000600267ffffffffffffffff81111561181757611816612b81565b5b6040519080825280602002602001820160405280156118455781602001602082028036833780820191505090505b509050600660009054906101000a900473ffffffffffffffffffffffffffffffffffffffff168160008151811061187f5761187e613911565b5b602002602001019073ffffffffffffffffffffffffffffffffffffffff16908173ffffffffffffffffffffffffffffffffffffffff1681525050600760009054906101000a900473ffffffffffffffffffffffffffffffffffffffff16816001815181106118f0576118ef613911565b5b602002602001019073ffffffffffffffffffffffffffffffffffffffff16908173ffffffffffffffffffffffffffffffffffffffff16815250508273ffffffffffffffffffffffffffffffffffffffff1663c89acc86600460009054906101000a900473ffffffffffffffffffffffffffffffffffffffff168360405160240161197a91906139ef565b6040516020818303038152906040527fc2998238000000000000000000000000000000000000000000000000000000007bffffffffffffffffffffffffffffffffffffffffffffffffffffffff19166020820180517bffffffffffffffffffffffffffffffffffffffffffffffffffffffff83818316178352505050506040518363ffffffff1660e01b8152600401611a149291906133b9565b6020604051808303816000875af1158015611a33573d6000803e3d6000fd5b505050506040513d601f19601f82011682018060405250810190611a57919061332c565b508273ffffffffffffffffffffffffffffffffffffffff16638058f478600760009054906101000a900473ffffffffffffffffffffffffffffffffffffffff1689604051602401611aa89190612b61565b6040516020818303038152906040527fc5ebeaec000000000000000000000000000000000000000000000000000000007bffffffffffffffffffffffffffffffffffffffffffffffffffffffff19166020820180517bffffffffffffffffffffffffffffffffffffffffffffffffffffffff8381831617835250505050896040518463ffffffff1660e01b8152600401611b4493929190613a11565b6020604051808303816000875af1158015611b63573d6000803e3d6000fd5b505050506040513d601f19601f82011682018060405250810190611b87919061332c565b508573ffffffffffffffffffffffffffffffffffffffff163373ffffffffffffffffffffffffffffffffffffffff16867fef18174796a5d2f91d51dc5e907a4d7867bbd6e800f6225168e0453d581d0dcd8a88604051611be89291906138e8565b60405180910390a450505050505050565b60008060009054906101000a900473ffffffffffffffffffffffffffffffffffffffff16905090565b611c2a6125a8565b81600260008381526020019081526020016000206002016000828254611c509190613a4f565b925050819055505050565b611c636125a8565b611c6d82826126ea565b5050565b60018054611c7e90613388565b80601f0160208091040260200160405190810160405280929190818152602001828054611caa90613388565b8015611cf75780601f10611ccc57610100808354040283529160200191611cf7565b820191906000526020600020905b815481529060010190602001808311611cda57829003601f168201915b505050505081565b6000600354905090565b600060026000838152602001908152602001600020600201549050919050565b600060149054906101000a900460ff1681565b6000611d466125a8565b600060036000815480929190611d5b90613a83565b919050559050808360000181815250508260026000838152602001908152602001600020600082015181600001556020820151816001015560408201518160020155606082015181600301556080820151816004015560a0820151816005015560c0820151816006015560e08201518160070160006101000a81548173ffffffffffffffffffffffffffffffffffffffff021916908373ffffffffffffffffffffffffffffffffffffffff1602179055506101008201518160080160006101000a81548173ffffffffffffffffffffffffffffffffffffffff021916908373ffffffffffffffffffffffffffffffffffffffff1602179055506101208201518160080160146101000a81548160ff02191690836003811115611e8057611e7f61290a565b5b02179055506101408201518160080160156101000a81548160ff021916908315150217905550610160820151816009019081611ebc91906137aa565b509050508083610100015173ffffffffffffffffffffffffffffffffffffffff167ff060b874355dd22d0bc251d61fca3b6d902778149a3048748276c9ee78ead56c60405160405180910390a380915050919050565b60026020528060005260406000206000915090508060000154908060010154908060020154908060030154908060040154908060050154908060060154908060070160009054906101000a900473ffffffffffffffffffffffffffffffffffffffff16908060080160009054906101000a900473ffffffffffffffffffffffffffffffffffffffff16908060080160149054906101000a900460ff16908060080160159054906101000a900460ff1690806009018054611fd190613388565b80601f0160208091040260200160405190810160405280929190818152602001828054611ffd90613388565b801561204a5780601f1061201f5761010080835404028352916020019161204a565b820191906000526020600020905b81548152906001019060200180831161202d57829003601f168201915b505050505090508c565b600080600560009054906101000a900473ffffffffffffffffffffffffffffffffffffffff1673ffffffffffffffffffffffffffffffffffffffff1663fc57d4df600660009054906101000a900473ffffffffffffffffffffffffffffffffffffffff166040518263ffffffff1660e01b81526004016120d49190612f09565b602060405180830381865afa1580156120f1573d6000803e3d6000fd5b505050506040513d601f19601f8201168201806040525081019061211591906134e8565b90506000600560009054906101000a900473ffffffffffffffffffffffffffffffffffffffff1673ffffffffffffffffffffffffffffffffffffffff1663fc57d4df600760009054906101000a900473ffffffffffffffffffffffffffffffffffffffff166040518263ffffffff1660e01b81526004016121969190612f09565b602060405180830381865afa1580156121b3573d6000803e3d6000fd5b505050506040513d601f19601f820116820180604052508101906121d791906134e8565b90506000600460009054906101000a900473ffffffffffffffffffffffffffffffffffffffff1673ffffffffffffffffffffffffffffffffffffffff16638e8f294b600660009054906101000a900473ffffffffffffffffffffffffffffffffffffffff166040518263ffffffff1660e01b81526004016122589190612f09565b6040805180830381865afa158015612274573d6000803e3d6000fd5b505050506040513d601f19601f820116820180604052508101906122989190613acb565b91505082816122a79190613544565b670de0b6b3a764000083674563918244f40000896122c59190613a4f565b6122cf9190613544565b6122d99190613544565b6122e391906135cd565b935050505092915050565b6122f66125a8565b600073ffffffffffffffffffffffffffffffffffffffff168173ffffffffffffffffffffffffffffffffffffffff1603612365576040517f08c379a000000000000000000000000000000000000000000000000000000000815260040161235c90613b7d565b60405180910390fd5b61236e81612626565b50565b600080600860009054906101000a900473ffffffffffffffffffffffffffffffffffffffff1673ffffffffffffffffffffffffffffffffffffffff16632fea7b81336040518263ffffffff1660e01b81526004016123cf9190612f09565b602060405180830381865afa1580156123ec573d6000803e3d6000fd5b505050506040513d601f19601f82011682018060405250810190612410919061323b565b9050600073ffffffffffffffffffffffffffffffffffffffff168173ffffffffffffffffffffffffffffffffffffffff16036124505760009150506125a3565b60008173ffffffffffffffffffffffffffffffffffffffff1663d79f44eb600760009054906101000a900473ffffffffffffffffffffffffffffffffffffffff16846040516024016124a29190612f09565b6040516020818303038152906040527f95dd9193000000000000000000000000000000000000000000000000000000007bffffffffffffffffffffffffffffffffffffffffffffffffffffffff19166020820180517bffffffffffffffffffffffffffffffffffffffffffffffffffffffff83818316178352505050506040518363ffffffff1660e01b815260040161253c9291906133b9565b600060405180830381865afa158015612559573d6000803e3d6000fd5b505050506040513d6000823e3d601f19601f82011682018060405250810190612582919061348a565b905060008180602001905181019061259a91906134e8565b90508093505050505b919050565b6125b061271b565b73ffffffffffffffffffffffffffffffffffffffff166125ce611bf9565b73ffffffffffffffffffffffffffffffffffffffff1614612624576040517f08c379a000000000000000000000000000000000000000000000000000000000815260040161261b90613be9565b60405180910390fd5b565b60008060009054906101000a900473ffffffffffffffffffffffffffffffffffffffff169050816000806101000a81548173ffffffffffffffffffffffffffffffffffffffff021916908373ffffffffffffffffffffffffffffffffffffffff1602179055508173ffffffffffffffffffffffffffffffffffffffff168173ffffffffffffffffffffffffffffffffffffffff167f8be0079c531659141344cd1fd0a4f28419497f9722a3daafe3b4186f6b6457e060405160405180910390a35050565b816002600083815260200190815260200160002060020160008282546127109190613c09565b925050819055505050565b600033905090565b60405180610180016040528060008152602001600081526020016000815260200160008152602001600081526020016000815260200160008152602001600073ffffffffffffffffffffffffffffffffffffffff168152602001600073ffffffffffffffffffffffffffffffffffffffff168152602001600060038111156127ae576127ad61290a565b5b8152602001600015158152602001606081525090565b6000604051905090565b600080fd5b600080fd5b6000819050919050565b6127eb816127d8565b81146127f657600080fd5b50565b600081359050612808816127e2565b92915050565b600073ffffffffffffffffffffffffffffffffffffffff82169050919050565b60006128398261280e565b9050919050565b6128498161282e565b811461285457600080fd5b50565b60008135905061286681612840565b92915050565b600080600060608486031215612885576128846127ce565b5b6000612893868287016127f9565b93505060206128a486828701612857565b92505060406128b5868287016127f9565b9150509250925092565b6000602082840312156128d5576128d46127ce565b5b60006128e3848285016127f9565b91505092915050565b6128f5816127d8565b82525050565b6129048161282e565b82525050565b7f4e487b7100000000000000000000000000000000000000000000000000000000600052602160045260246000fd5b6004811061294a5761294961290a565b5b50565b600081905061295b82612939565b919050565b600061296b8261294d565b9050919050565b61297b81612960565b82525050565b60008115159050919050565b61299681612981565b82525050565b600081519050919050565b600082825260208201905092915050565b60005b838110156129d65780820151818401526020810190506129bb565b60008484015250505050565b6000601f19601f8301169050919050565b60006129fe8261299c565b612a0881856129a7565b9350612a188185602086016129b8565b612a21816129e2565b840191505092915050565b600061018083016000830151612a4560008601826128ec565b506020830151612a5860208601826128ec565b506040830151612a6b60408601826128ec565b506060830151612a7e60608601826128ec565b506080830151612a9160808601826128ec565b5060a0830151612aa460a08601826128ec565b5060c0830151612ab760c08601826128ec565b5060e0830151612aca60e08601826128fb565b50610100830151612adf6101008601826128fb565b50610120830151612af4610120860182612972565b50610140830151612b0961014086018261298d565b50610160830151848203610160860152612b2382826129f3565b9150508091505092915050565b60006020820190508181036000830152612b4a8184612a2c565b905092915050565b612b5b816127d8565b82525050565b6000602082019050612b766000830184612b52565b92915050565b600080fd5b7f4e487b7100000000000000000000000000000000000000000000000000000000600052604160045260246000fd5b612bb9826129e2565b810181811067ffffffffffffffff82111715612bd857612bd7612b81565b5b80604052505050565b6000612beb6127c4565b9050612bf78282612bb0565b919050565b600080fd5b60048110612c0e57600080fd5b50565b600081359050612c2081612c01565b92915050565b612c2f81612981565b8114612c3a57600080fd5b50565b600081359050612c4c81612c26565b92915050565b600080fd5b600080fd5b600067ffffffffffffffff821115612c7757612c76612b81565b5b612c80826129e2565b9050602081019050919050565b82818337600083830152505050565b6000612caf612caa84612c5c565b612be1565b905082815260208101848484011115612ccb57612cca612c57565b5b612cd6848285612c8d565b509392505050565b600082601f830112612cf357612cf2612c52565b5b8135612d03848260208601612c9c565b91505092915050565b60006101808284031215612d2357612d22612b7c565b5b612d2e610180612be1565b90506000612d3e848285016127f9565b6000830152506020612d52848285016127f9565b6020830152506040612d66848285016127f9565b6040830152506060612d7a848285016127f9565b6060830152506080612d8e848285016127f9565b60808301525060a0612da2848285016127f9565b60a08301525060c0612db6848285016127f9565b60c08301525060e0612dca84828501612857565b60e083015250610100612ddf84828501612857565b61010083015250610120612df584828501612c11565b61012083015250610140612e0b84828501612c3d565b6101408301525061016082013567ffffffffffffffff811115612e3157612e30612bfc565b5b612e3d84828501612cde565b6101608301525092915050565b600060208284031215612e6057612e5f6127ce565b5b600082013567ffffffffffffffff811115612e7e57612e7d6127d3565b5b612e8a84828501612d0c565b91505092915050565b60008060008060808587031215612ead57612eac6127ce565b5b6000612ebb878288016127f9565b9450506020612ecc87828801612857565b9350506040612edd878288016127f9565b9250506060612eee878288016127f9565b91505092959194509250565b612f038161282e565b82525050565b6000602082019050612f1e6000830184612efa565b92915050565b60008060408385031215612f3b57612f3a6127ce565b5b6000612f49858286016127f9565b9250506020612f5a858286016127f9565b9150509250929050565b600082825260208201905092915050565b6000612f808261299c565b612f8a8185612f64565b9350612f9a8185602086016129b8565b612fa3816129e2565b840191505092915050565b60006020820190508181036000830152612fc88184612f75565b905092915050565b60028110612fe157612fe061290a565b5b50565b6000819050612ff282612fd0565b919050565b600061300282612fe4565b9050919050565b61301281612ff7565b82525050565b600060208201905061302d6000830184613009565b92915050565b61303c81612960565b82525050565b61304b81612981565b82525050565b600061018082019050613067600083018f612b52565b613074602083018e612b52565b613081604083018d612b52565b61308e606083018c612b52565b61309b608083018b612b52565b6130a860a083018a612b52565b6130b560c0830189612b52565b6130c260e0830188612efa565b6130d0610100830187612efa565b6130de610120830186613033565b6130ec610140830185613042565b8181036101608301526130ff8184612f75565b90509d9c50505050505050505050505050565b60008060408385031215613129576131286127ce565b5b6000613137858286016127f9565b925050602061314885828601612857565b9150509250929050565b600060208284031215613168576131676127ce565b5b600061317684828501612857565b91505092915050565b7f4e6f6e207a65726f20626f72726f777300000000000000000000000000000000600082015250565b60006131b5601083612f64565b91506131c08261317f565b602082019050919050565b600060208201905081810360008301526131e4816131a8565b9050919050565b60006131f68261280e565b9050919050565b6000613208826131eb565b9050919050565b613218816131fd565b811461322357600080fd5b50565b6000815190506132358161320f565b92915050565b600060208284031215613251576132506127ce565b5b600061325f84828501613226565b91505092915050565b600081519050919050565b600082825260208201905092915050565b600061328f82613268565b6132998185613273565b93506132a98185602086016129b8565b6132b2816129e2565b840191505092915050565b600060a0820190506132d26000830188612efa565b81810360208301526132e48187613284565b90506132f36040830186612efa565b6133006060830185612b52565b61330d6080830184612efa565b9695505050505050565b60008151905061332681612c26565b92915050565b600060208284031215613342576133416127ce565b5b600061335084828501613317565b91505092915050565b7f4e487b7100000000000000000000000000000000000000000000000000000000600052602260045260246000fd5b600060028204905060018216806133a057607f821691505b6020821081036133b3576133b2613359565b5b50919050565b60006040820190506133ce6000830185612efa565b81810360208301526133e08184613284565b90509392505050565b600067ffffffffffffffff82111561340457613403612b81565b5b61340d826129e2565b9050602081019050919050565b600061342d613428846133e9565b612be1565b90508281526020810184848401111561344957613448612c57565b5b6134548482856129b8565b509392505050565b600082601f83011261347157613470612c52565b5b815161348184826020860161341a565b91505092915050565b6000602082840312156134a05761349f6127ce565b5b600082015167ffffffffffffffff8111156134be576134bd6127d3565b5b6134ca8482850161345c565b91505092915050565b6000815190506134e2816127e2565b92915050565b6000602082840312156134fe576134fd6127ce565b5b600061350c848285016134d3565b91505092915050565b7f4e487b7100000000000000000000000000000000000000000000000000000000600052601160045260246000fd5b600061354f826127d8565b915061355a836127d8565b9250817fffffffffffffffffffffffffffffffffffffffffffffffffffffffffffffffff048311821515161561359357613592613515565b5b828202905092915050565b7f4e487b7100000000000000000000000000000000000000000000000000000000600052601260045260246000fd5b60006135d8826127d8565b91506135e3836127d8565b9250826135f3576135f261359e565b5b828204905092915050565b60008190508160005260206000209050919050565b60006020601f8301049050919050565b600082821b905092915050565b6000600883026136607fffffffffffffffffffffffffffffffffffffffffffffffffffffffffffffffff82613623565b61366a8683613623565b95508019841693508086168417925050509392505050565b6000819050919050565b60006136a76136a261369d846127d8565b613682565b6127d8565b9050919050565b6000819050919050565b6136c18361368c565b6136d56136cd826136ae565b848454613630565b825550505050565b600090565b6136ea6136dd565b6136f58184846136b8565b505050565b5b818110156137195761370e6000826136e2565b6001810190506136fb565b5050565b601f82111561375e5761372f816135fe565b61373884613613565b81016020851015613747578190505b61375b61375385613613565b8301826136fa565b50505b505050565b600082821c905092915050565b600061378160001984600802613763565b1980831691505092915050565b600061379a8383613770565b9150826002028217905092915050565b6137b38261299c565b67ffffffffffffffff8111156137cc576137cb612b81565b5b6137d68254613388565b6137e182828561371d565b600060209050601f8311600181146138145760008415613802578287015190505b61380c858261378e565b865550613874565b601f198416613822866135fe565b60005b8281101561384a57848901518255600182019150602085019450602081019050613825565b868310156138675784890151613863601f891682613770565b8355505b6001600288020188555050505b505050505050565b7f4e6f6e207a65726f20636f6c6c61746572616c00000000000000000000000000600082015250565b60006138b2601383612f64565b91506138bd8261387c565b602082019050919050565b600060208201905081810360008301526138e1816138a5565b9050919050565b60006040820190506138fd6000830185612b52565b61390a6020830184612b52565b9392505050565b7f4e487b7100000000000000000000000000000000000000000000000000000000600052603260045260246000fd5b600081519050919050565b600082825260208201905092915050565b6000819050602082019050919050565b600061397883836128fb565b60208301905092915050565b6000602082019050919050565b600061399c82613940565b6139a6818561394b565b93506139b18361395c565b8060005b838110156139e25781516139c9888261396c565b97506139d483613984565b9250506001810190506139b5565b5085935050505092915050565b60006020820190508181036000830152613a098184613991565b905092915050565b6000606082019050613a266000830186612efa565b8181036020830152613a388185613284565b9050613a476040830184612efa565b949350505050565b6000613a5a826127d8565b9150613a65836127d8565b9250828201905080821115613a7d57613a7c613515565b5b92915050565b6000613a8e826127d8565b91507fffffffffffffffffffffffffffffffffffffffffffffffffffffffffffffffff8203613ac057613abf613515565b5b600182019050919050565b60008060408385031215613ae257613ae16127ce565b5b6000613af085828601613317565b9250506020613b01858286016134d3565b9150509250929050565b7f4f776e61626c653a206e6577206f776e657220697320746865207a65726f206160008201527f6464726573730000000000000000000000000000000000000000000000000000602082015250565b6000613b67602683612f64565b9150613b7282613b0b565b604082019050919050565b60006020820190508181036000830152613b9681613b5a565b9050919050565b7f4f776e61626c653a2063616c6c6572206973206e6f7420746865206f776e6572600082015250565b6000613bd3602083612f64565b9150613bde82613b9d565b602082019050919050565b60006020820190508181036000830152613c0281613bc6565b9050919050565b6000613c14826127d8565b9150613c1f836127d8565b9250828203905081811115613c3757613c36613515565b5b9291505056fea26469706673582212207726b7143dab3c4332e3c96aaaef367db6ce8b4a921b64f2023bf1837bdd784b64736f6c63430008100033",
  "linkReferences": {},
  "deployedLinkReferences": {}
}